{
  "contractName": "GoForItTokenSale",
  "abi": [
    {
      "constant": true,
      "inputs": [],
      "name": "hasClosed",
      "outputs": [
        {
          "name": "",
          "type": "bool"
        }
      ],
      "payable": false,
      "stateMutability": "view",
      "type": "function"
    },
    {
      "constant": true,
      "inputs": [],
      "name": "pendingWeiAmount",
      "outputs": [
        {
          "name": "",
          "type": "uint256"
        }
      ],
      "payable": false,
      "stateMutability": "view",
      "type": "function"
    },
    {
      "constant": true,
      "inputs": [],
      "name": "rate",
      "outputs": [
        {
          "name": "",
          "type": "uint256"
        }
      ],
      "payable": false,
      "stateMutability": "view",
      "type": "function"
    },
    {
      "constant": true,
      "inputs": [],
      "name": "weiRaised",
      "outputs": [
        {
          "name": "",
          "type": "uint256"
        }
      ],
      "payable": false,
      "stateMutability": "view",
      "type": "function"
    },
    {
      "constant": true,
      "inputs": [],
      "name": "closingTime",
      "outputs": [
        {
          "name": "",
          "type": "uint256"
        }
      ],
      "payable": false,
      "stateMutability": "view",
      "type": "function"
    },
    {
      "constant": false,
      "inputs": [],
      "name": "finalize",
      "outputs": [],
      "payable": false,
      "stateMutability": "nonpayable",
      "type": "function"
    },
    {
      "constant": true,
      "inputs": [],
      "name": "wallet",
      "outputs": [
        {
          "name": "",
          "type": "address"
        }
      ],
      "payable": false,
      "stateMutability": "view",
      "type": "function"
    },
    {
      "constant": true,
      "inputs": [],
      "name": "SALE_CLOSING_TIME",
      "outputs": [
        {
          "name": "",
          "type": "uint256"
        }
      ],
      "payable": false,
      "stateMutability": "view",
      "type": "function"
    },
    {
      "constant": true,
      "inputs": [],
      "name": "TOKEN_SHARE_OF_ADVISORS",
      "outputs": [
        {
          "name": "",
          "type": "uint256"
        }
      ],
      "payable": false,
      "stateMutability": "view",
      "type": "function"
    },
    {
      "constant": false,
      "inputs": [],
      "name": "renounceOwnership",
      "outputs": [],
      "payable": false,
      "stateMutability": "nonpayable",
      "type": "function"
    },
    {
      "constant": true,
      "inputs": [],
      "name": "isFinalized",
      "outputs": [
        {
          "name": "",
          "type": "bool"
        }
      ],
      "payable": false,
      "stateMutability": "view",
      "type": "function"
    },
    {
      "constant": true,
      "inputs": [],
      "name": "owner",
      "outputs": [
        {
          "name": "",
          "type": "address"
        }
      ],
      "payable": false,
      "stateMutability": "view",
      "type": "function"
    },
    {
      "constant": true,
      "inputs": [],
      "name": "TOKEN_SHARE_OF_TEAM",
      "outputs": [
        {
          "name": "",
          "type": "uint256"
        }
      ],
      "payable": false,
      "stateMutability": "view",
      "type": "function"
    },
    {
      "constant": true,
      "inputs": [
        {
          "name": "",
          "type": "address"
        }
      ],
      "name": "investments",
      "outputs": [
        {
          "name": "isVerified",
          "type": "bool"
        },
        {
          "name": "totalWeiInvested",
          "type": "uint256"
        },
        {
          "name": "pendingTokenAmount",
          "type": "uint256"
        }
      ],
      "payable": false,
      "stateMutability": "view",
      "type": "function"
    },
    {
      "constant": true,
      "inputs": [],
      "name": "teamAdvisorVestingContract",
      "outputs": [
        {
          "name": "",
          "type": "address"
        }
      ],
      "payable": false,
      "stateMutability": "view",
      "type": "function"
    },
    {
      "constant": true,
      "inputs": [],
      "name": "remainingTokensForSale",
      "outputs": [
        {
          "name": "",
          "type": "uint256"
        }
      ],
      "payable": false,
      "stateMutability": "view",
      "type": "function"
    },
    {
      "constant": true,
      "inputs": [],
      "name": "TOKEN_SHARE_OF_BOUNTY",
      "outputs": [
        {
          "name": "",
          "type": "uint256"
        }
      ],
      "payable": false,
      "stateMutability": "view",
      "type": "function"
    },
    {
      "constant": true,
      "inputs": [],
      "name": "TOKEN_SHARE_OF_COMPANY",
      "outputs": [
        {
          "name": "",
          "type": "uint256"
        }
      ],
      "payable": false,
      "stateMutability": "view",
      "type": "function"
    },
    {
      "constant": true,
      "inputs": [],
      "name": "TOTAL_TOKEN_CAP_OF_SALE",
      "outputs": [
        {
          "name": "",
          "type": "uint256"
        }
      ],
      "payable": false,
      "stateMutability": "view",
      "type": "function"
    },
    {
      "constant": true,
      "inputs": [],
      "name": "openingTime",
      "outputs": [
        {
          "name": "",
          "type": "uint256"
        }
      ],
      "payable": false,
      "stateMutability": "view",
      "type": "function"
    },
    {
      "constant": false,
      "inputs": [
        {
          "name": "_investors",
          "type": "address[]"
        }
      ],
      "name": "verifyInvestors",
      "outputs": [],
      "payable": false,
      "stateMutability": "nonpayable",
      "type": "function"
    },
    {
      "constant": true,
      "inputs": [],
      "name": "preSaleVestingContract",
      "outputs": [
        {
          "name": "",
          "type": "address"
        }
      ],
      "payable": false,
      "stateMutability": "view",
      "type": "function"
    },
    {
      "constant": true,
      "inputs": [],
      "name": "SALE_OPENING_TIME",
      "outputs": [
        {
          "name": "",
          "type": "uint256"
        }
      ],
      "payable": false,
      "stateMutability": "view",
      "type": "function"
    },
    {
      "constant": false,
      "inputs": [
        {
          "name": "_beneficiary",
          "type": "address"
        }
      ],
      "name": "buyTokens",
      "outputs": [],
      "payable": true,
      "stateMutability": "payable",
      "type": "function"
    },
    {
      "constant": false,
      "inputs": [
        {
          "name": "_newOwner",
          "type": "address"
        }
      ],
      "name": "transferOwnership",
      "outputs": [],
      "payable": false,
      "stateMutability": "nonpayable",
      "type": "function"
    },
    {
      "constant": true,
      "inputs": [],
      "name": "TOKEN_SHARE_OF_PRESALE",
      "outputs": [
        {
          "name": "",
          "type": "uint256"
        }
      ],
      "payable": false,
      "stateMutability": "view",
      "type": "function"
    },
    {
      "constant": true,
      "inputs": [],
      "name": "token",
      "outputs": [
        {
          "name": "",
          "type": "address"
        }
      ],
      "payable": false,
      "stateMutability": "view",
      "type": "function"
    },
    {
      "constant": true,
      "inputs": [],
      "name": "companyVestingContract",
      "outputs": [
        {
          "name": "",
          "type": "address"
        }
      ],
      "payable": false,
      "stateMutability": "view",
      "type": "function"
    },
    {
      "inputs": [
        {
          "name": "_token",
          "type": "address"
        },
        {
          "name": "_rate",
          "type": "uint256"
        },
        {
          "name": "_preSaleVestingContract",
          "type": "address"
        },
        {
          "name": "_teamAdvisorVestingContract",
          "type": "address"
        },
        {
          "name": "_companyVestingContract",
          "type": "address"
        },
        {
          "name": "_wallet",
          "type": "address"
        }
      ],
      "payable": false,
      "stateMutability": "nonpayable",
      "type": "constructor"
    },
    {
      "payable": true,
      "stateMutability": "payable",
      "type": "fallback"
    },
    {
      "anonymous": false,
      "inputs": [
        {
          "indexed": false,
          "name": "newRate",
          "type": "uint256"
        }
      ],
      "name": "RateChanged",
      "type": "event"
    },
    {
      "anonymous": false,
      "inputs": [
        {
          "indexed": false,
          "name": "investor",
          "type": "address"
        }
      ],
      "name": "InvestorVerified",
      "type": "event"
    },
    {
      "anonymous": false,
      "inputs": [
        {
          "indexed": false,
          "name": "investor",
          "type": "address"
        },
        {
          "indexed": false,
          "name": "amount",
          "type": "uint256"
        }
      ],
      "name": "TokensDelivered",
      "type": "event"
    },
    {
      "anonymous": false,
      "inputs": [
        {
          "indexed": false,
          "name": "investor",
          "type": "address"
        },
        {
          "indexed": false,
          "name": "value",
          "type": "uint256"
        }
      ],
      "name": "InvestmentWithdrawn",
      "type": "event"
    },
    {
      "anonymous": false,
      "inputs": [],
      "name": "Finalized",
      "type": "event"
    },
    {
      "anonymous": false,
      "inputs": [
        {
          "indexed": true,
          "name": "purchaser",
          "type": "address"
        },
        {
          "indexed": true,
          "name": "beneficiary",
          "type": "address"
        },
        {
          "indexed": false,
          "name": "value",
          "type": "uint256"
        },
        {
          "indexed": false,
          "name": "amount",
          "type": "uint256"
        }
      ],
      "name": "TokenPurchase",
      "type": "event"
    },
    {
      "anonymous": false,
      "inputs": [
        {
          "indexed": true,
          "name": "previousOwner",
          "type": "address"
        }
      ],
      "name": "OwnershipRenounced",
      "type": "event"
    },
    {
      "anonymous": false,
      "inputs": [
        {
          "indexed": true,
          "name": "previousOwner",
          "type": "address"
        },
        {
          "indexed": true,
          "name": "newOwner",
          "type": "address"
        }
      ],
      "name": "OwnershipTransferred",
      "type": "event"
    },
    {
      "constant": false,
      "inputs": [
        {
          "name": "_newRate",
          "type": "uint256"
        }
      ],
      "name": "setRate",
      "outputs": [],
      "payable": false,
      "stateMutability": "nonpayable",
      "type": "function"
    },
    {
      "constant": false,
      "inputs": [],
      "name": "withdrawInvestment",
      "outputs": [],
      "payable": false,
      "stateMutability": "nonpayable",
      "type": "function"
    },
    {
      "constant": true,
      "inputs": [],
      "name": "GoForItSaleOngoing",
      "outputs": [
        {
          "name": "",
          "type": "bool"
        }
      ],
      "payable": false,
      "stateMutability": "view",
      "type": "function"
    }
  ],
  "bytecode": "0x60806040526000600760006101000a81548160ff02191690831515021790555060006008553480156200003157600080fd5b5060405160c080620024a3833981018060405281019080805190602001909291908051906020019092919080519060200190929190805190602001909291908051906020019092919080519060200190929190505050633b9aca006377359400868389336000806101000a81548173ffffffffffffffffffffffffffffffffffffffff021916908373ffffffffffffffffffffffffffffffffffffffff160217905550600083111515620000e457600080fd5b600073ffffffffffffffffffffffffffffffffffffffff168273ffffffffffffffffffffffffffffffffffffffff16141515156200012157600080fd5b600073ffffffffffffffffffffffffffffffffffffffff168173ffffffffffffffffffffffffffffffffffffffff16141515156200015e57600080fd5b8260038190555081600260006101000a81548173ffffffffffffffffffffffffffffffffffffffff021916908373ffffffffffffffffffffffffffffffffffffffff16021790555080600160006101000a81548173ffffffffffffffffffffffffffffffffffffffff021916908373ffffffffffffffffffffffffffffffffffffffff160217905550505050428210151515620001fa57600080fd5b8181101515156200020a57600080fd5b81600581905550806006819055505050600073ffffffffffffffffffffffffffffffffffffffff168473ffffffffffffffffffffffffffffffffffffffff1614158015620002855750600073ffffffffffffffffffffffffffffffffffffffff168373ffffffffffffffffffffffffffffffffffffffff1614155b8015620002bf5750600073ffffffffffffffffffffffffffffffffffffffff168273ffffffffffffffffffffffffffffffffffffffff1614155b1515620002cb57600080fd5b83600a60006101000a81548173ffffffffffffffffffffffffffffffffffffffff021916908373ffffffffffffffffffffffffffffffffffffffff16021790555082600b60006101000a81548173ffffffffffffffffffffffffffffffffffffffff021916908373ffffffffffffffffffffffffffffffffffffffff16021790555081600c60006101000a81548173ffffffffffffffffffffffffffffffffffffffff021916908373ffffffffffffffffffffffffffffffffffffffff1602179055506b0409f9cbc7c4a04c22000000600d819055505050505050506120ec80620003b76000396000f30060806040526004361061018b576000357c0100000000000000000000000000000000000000000000000000000000900463ffffffff1680631515bc2b1461019657806327b44a6c146101c55780632c4e722e146101f057806334fcf4371461021b5780634042b66f146102485780634b6753bc146102735780634bb278f31461029e578063521eb273146102b55780635959306f1461030c5780636927e45a14610337578063715018a61461036257806388d0e22b146103795780638d4e4083146103a85780638da5cb5b146103d75780639584fbfc1461042e57806396b988621461045957806398775911146104c25780639b39f9bf146105195780639c001bcc146105445780639f9cb8e11461056f578063b1a2bbd11461059a578063b7a8807c146105c5578063bf3e394e146105f0578063c69b5dfb14610607578063d348f7951461066d578063d4573284146106c4578063ec8ac4d8146106ef578063f2fde38b14610725578063f99490b814610768578063fc0c546a14610793578063fc9aa57b146107ea575b61019433610841565b005b3480156101a257600080fd5b506101ab61090f565b604051808215151515815260200191505060405180910390f35b3480156101d157600080fd5b506101da61091b565b6040518082815260200191505060405180910390f35b3480156101fc57600080fd5b50610205610921565b6040518082815260200191505060405180910390f35b34801561022757600080fd5b5061024660048036038101908080359060200190929190505050610927565b005b34801561025457600080fd5b5061025d6109ef565b6040518082815260200191505060405180910390f35b34801561027f57600080fd5b506102886109f5565b6040518082815260200191505060405180910390f35b3480156102aa57600080fd5b506102b36109fb565b005b3480156102c157600080fd5b506102ca610ad6565b604051808273ffffffffffffffffffffffffffffffffffffffff1673ffffffffffffffffffffffffffffffffffffffff16815260200191505060405180910390f35b34801561031857600080fd5b50610321610afc565b6040518082815260200191505060405180910390f35b34801561034357600080fd5b5061034c610b04565b6040518082815260200191505060405180910390f35b34801561036e57600080fd5b50610377610b14565b005b34801561038557600080fd5b5061038e610c16565b604051808215151515815260200191505060405180910390f35b3480156103b457600080fd5b506103bd610c35565b604051808215151515815260200191505060405180910390f35b3480156103e357600080fd5b506103ec610c48565b604051808273ffffffffffffffffffffffffffffffffffffffff1673ffffffffffffffffffffffffffffffffffffffff16815260200191505060405180910390f35b34801561043a57600080fd5b50610443610c6d565b6040518082815260200191505060405180910390f35b34801561046557600080fd5b5061049a600480360381019080803573ffffffffffffffffffffffffffffffffffffffff169060200190929190505050610c7d565b6040518084151515158152602001838152602001828152602001935050505060405180910390f35b3480156104ce57600080fd5b506104d7610cb4565b604051808273ffffffffffffffffffffffffffffffffffffffff1673ffffffffffffffffffffffffffffffffffffffff16815260200191505060405180910390f35b34801561052557600080fd5b5061052e610cda565b6040518082815260200191505060405180910390f35b34801561055057600080fd5b50610559610ce0565b6040518082815260200191505060405180910390f35b34801561057b57600080fd5b50610584610cef565b6040518082815260200191505060405180910390f35b3480156105a657600080fd5b506105af610cff565b6040518082815260200191505060405180910390f35b3480156105d157600080fd5b506105da610d0f565b6040518082815260200191505060405180910390f35b3480156105fc57600080fd5b50610605610d15565b005b34801561061357600080fd5b5061066b60048036038101908080359060200190820180359060200190808060200260200160405190810160405280939291908181526020018383602002808284378201915050505050509192919290505050610d32565b005b34801561067957600080fd5b50610682610f44565b604051808273ffffffffffffffffffffffffffffffffffffffff1673ffffffffffffffffffffffffffffffffffffffff16815260200191505060405180910390f35b3480156106d057600080fd5b506106d9610f6a565b6040518082815260200191505060405180910390f35b610723600480360381019080803573ffffffffffffffffffffffffffffffffffffffff169060200190929190505050610841565b005b34801561073157600080fd5b50610766600480360381019080803573ffffffffffffffffffffffffffffffffffffffff169060200190929190505050610f72565b005b34801561077457600080fd5b5061077d610fd9565b6040518082815260200191505060405180910390f35b34801561079f57600080fd5b506107a8610fe9565b604051808273ffffffffffffffffffffffffffffffffffffffff1673ffffffffffffffffffffffffffffffffffffffff16815260200191505060405180910390f35b3480156107f657600080fd5b506107ff61100f565b604051808273ffffffffffffffffffffffffffffffffffffffff1673ffffffffffffffffffffffffffffffffffffffff16815260200191505060405180910390f35b6000803491506108518383611035565b61085a8261107d565b90506108718260045461109b90919063ffffffff16565b60048190555061088183826110b7565b8273ffffffffffffffffffffffffffffffffffffffff163373ffffffffffffffffffffffffffffffffffffffff167f623b3804fa71d67900d064613da8f94b9617215ee90799290593e1745087ad188484604051808381526020018281526020019250505060405180910390a36108f883836111ea565b6109006111ee565b61090a838361124e565b505050565b60006006544211905090565b60085481565b60035481565b6000809054906101000a900473ffffffffffffffffffffffffffffffffffffffff1673ffffffffffffffffffffffffffffffffffffffff163373ffffffffffffffffffffffffffffffffffffffff1614151561098257600080fd5b80600a60035481151561099157fe5b041080156109a35750600354600a0281105b15156109ae57600080fd5b806003819055507f595a30f13a69b616c4d568e2a2b7875fdfe86e4300a049953c76ee278f8f3f10816040518082815260200191505060405180910390a150565b60045481565b60065481565b6000809054906101000a900473ffffffffffffffffffffffffffffffffffffffff1673ffffffffffffffffffffffffffffffffffffffff163373ffffffffffffffffffffffffffffffffffffffff16141515610a5657600080fd5b600760009054906101000a900460ff16151515610a7257600080fd5b610a7a61090f565b1515610a8557600080fd5b610a8d611281565b7f6823b073d48d6e3a7d385eeb601452d680e74bb46afe3255a7d778f3a9b1768160405160405180910390a16001600760006101000a81548160ff021916908315150217905550565b600260009054906101000a900473ffffffffffffffffffffffffffffffffffffffff1681565b637735940081565b6b03838f1520ff8b756f80000081565b6000809054906101000a900473ffffffffffffffffffffffffffffffffffffffff1673ffffffffffffffffffffffffffffffffffffffff163373ffffffffffffffffffffffffffffffffffffffff16141515610b6f57600080fd5b6000809054906101000a900473ffffffffffffffffffffffffffffffffffffffff1673ffffffffffffffffffffffffffffffffffffffff167ff8df31144d9c2f0f6b59d69b8b98abd5459d07f2742c4df920b25aae33c6482060405160405180910390a260008060006101000a81548173ffffffffffffffffffffffffffffffffffffffff021916908373ffffffffffffffffffffffffffffffffffffffff160217905550565b600042633b9aca0011158015610c30575063773594004211155b905090565b600760009054906101000a900460ff1681565b6000809054906101000a900473ffffffffffffffffffffffffffffffffffffffff1681565b6b038de60f7c988d0fcc00000081565b60096020528060005260406000206000915090508060000160009054906101000a900460ff16908060010154908060020154905083565b600b60009054906101000a900473ffffffffffffffffffffffffffffffffffffffff1681565b600d5481565b6a95ed2e302a973e3d40000081565b6b0ae31bcea3e48655b2fc000081565b6b0409f9cbc7c4a04c2200000081565b60055481565b610d1d61090f565b1515610d2857600080fd5b610d30611b35565b565b6000806000806000809054906101000a900473ffffffffffffffffffffffffffffffffffffffff1673ffffffffffffffffffffffffffffffffffffffff163373ffffffffffffffffffffffffffffffffffffffff16141515610d9357600080fd5b600093505b8451841015610f3d578484815181101515610daf57fe5b906020019060200201519250600960008473ffffffffffffffffffffffffffffffffffffffff1673ffffffffffffffffffffffffffffffffffffffff16815260200190815260200160002091508160000160009054906101000a900460ff161515610f325760018260000160006101000a81548160ff0219169083151502179055507f293e993e01bc214772c3f076d0b72798191877356179e95807eba63d2f8d2df283604051808273ffffffffffffffffffffffffffffffffffffffff1673ffffffffffffffffffffffffffffffffffffffff16815260200191505060405180910390a1816002015490506000811115610f315760008260020181905550610ebb8260010154611cb7565b610ec58382611d3e565b7f8fbcf3d47879dffedfcda6d2f03ed557bea5305b6ef6484d3cc06750f13b8e0e8382604051808373ffffffffffffffffffffffffffffffffffffffff1673ffffffffffffffffffffffffffffffffffffffff1681526020018281526020019250505060405180910390a15b5b836001019350610d98565b5050505050565b600a60009054906101000a900473ffffffffffffffffffffffffffffffffffffffff1681565b633b9aca0081565b6000809054906101000a900473ffffffffffffffffffffffffffffffffffffffff1673ffffffffffffffffffffffffffffffffffffffff163373ffffffffffffffffffffffffffffffffffffffff16141515610fcd57600080fd5b610fd681611d78565b50565b6b11cf4a0894426c940644000081565b600160009054906101000a900473ffffffffffffffffffffffffffffffffffffffff1681565b600c60009054906101000a900473ffffffffffffffffffffffffffffffffffffffff1681565b3373ffffffffffffffffffffffffffffffffffffffff168273ffffffffffffffffffffffffffffffffffffffff1614151561106f57600080fd5b6110798282611e72565b5050565b600061109460035483611e9f90919063ffffffff16565b9050919050565b600081830190508281101515156110ae57fe5b80905092915050565b6000600960003373ffffffffffffffffffffffffffffffffffffffff1673ffffffffffffffffffffffffffffffffffffffff168152602001908152602001600020905061111134826001015461109b90919063ffffffff16565b81600101819055508060000160009054906101000a900460ff16156111aa5761113a3383611d3e565b7f8fbcf3d47879dffedfcda6d2f03ed557bea5305b6ef6484d3cc06750f13b8e0e3383604051808373ffffffffffffffffffffffffffffffffffffffff1673ffffffffffffffffffffffffffffffffffffffff1681526020018281526020019250505060405180910390a16111e5565b6111c182826002015461109b90919063ffffffff16565b81600201819055506111de3460085461109b90919063ffffffff16565b6008819055505b505050565b5050565b600960003373ffffffffffffffffffffffffffffffffffffffff1673ffffffffffffffffffffffffffffffffffffffff16815260200190815260200160002060000160009054906101000a900460ff161561124c5761124b611ed7565b5b565b6112583382611f42565b3073ffffffffffffffffffffffffffffffffffffffff16316008541115151561127d57fe5b5050565b61128961090f565b151561129457600080fd5b600160009054906101000a900473ffffffffffffffffffffffffffffffffffffffff1673ffffffffffffffffffffffffffffffffffffffff166340c10f19600a60009054906101000a900473ffffffffffffffffffffffffffffffffffffffff166b11cf4a0894426c94064400006040518363ffffffff167c0100000000000000000000000000000000000000000000000000000000028152600401808373ffffffffffffffffffffffffffffffffffffffff1673ffffffffffffffffffffffffffffffffffffffff16815260200182815260200192505050602060405180830381600087803b15801561138757600080fd5b505af115801561139b573d6000803e3d6000fd5b505050506040513d60208110156113b157600080fd5b810190808051906020019092919050505050600160009054906101000a900473ffffffffffffffffffffffffffffffffffffffff1673ffffffffffffffffffffffffffffffffffffffff166340c10f19600b60009054906101000a900473ffffffffffffffffffffffffffffffffffffffff166b03838f1520ff8b756f8000006040518363ffffffff167c0100000000000000000000000000000000000000000000000000000000028152600401808373ffffffffffffffffffffffffffffffffffffffff1673ffffffffffffffffffffffffffffffffffffffff16815260200182815260200192505050602060405180830381600087803b1580156114b657600080fd5b505af11580156114ca573d6000803e3d6000fd5b505050506040513d60208110156114e057600080fd5b810190808051906020019092919050505050600160009054906101000a900473ffffffffffffffffffffffffffffffffffffffff1673ffffffffffffffffffffffffffffffffffffffff166340c10f19600c60009054906101000a900473ffffffffffffffffffffffffffffffffffffffff166b0ae31bcea3e48655b2fc00006040518363ffffffff167c0100000000000000000000000000000000000000000000000000000000028152600401808373ffffffffffffffffffffffffffffffffffffffff1673ffffffffffffffffffffffffffffffffffffffff16815260200182815260200192505050602060405180830381600087803b1580156115e557600080fd5b505af11580156115f9573d6000803e3d6000fd5b505050506040513d602081101561160f57600080fd5b810190808051906020019092919050505050600160009054906101000a900473ffffffffffffffffffffffffffffffffffffffff1673ffffffffffffffffffffffffffffffffffffffff166340c10f19600b60009054906101000a900473ffffffffffffffffffffffffffffffffffffffff166064604b6b038de60f7c988d0fcc0000000281151561169d57fe5b046040518363ffffffff167c0100000000000000000000000000000000000000000000000000000000028152600401808373ffffffffffffffffffffffffffffffffffffffff1673ffffffffffffffffffffffffffffffffffffffff16815260200182815260200192505050602060405180830381600087803b15801561172357600080fd5b505af1158015611737573d6000803e3d6000fd5b505050506040513d602081101561174d57600080fd5b810190808051906020019092919050505050600160009054906101000a900473ffffffffffffffffffffffffffffffffffffffff1673ffffffffffffffffffffffffffffffffffffffff166340c10f19600260009054906101000a900473ffffffffffffffffffffffffffffffffffffffff16606460196b038de60f7c988d0fcc000000028115156117db57fe5b046040518363ffffffff167c0100000000000000000000000000000000000000000000000000000000028152600401808373ffffffffffffffffffffffffffffffffffffffff1673ffffffffffffffffffffffffffffffffffffffff16815260200182815260200192505050602060405180830381600087803b15801561186157600080fd5b505af1158015611875573d6000803e3d6000fd5b505050506040513d602081101561188b57600080fd5b810190808051906020019092919050505050600160009054906101000a900473ffffffffffffffffffffffffffffffffffffffff1673ffffffffffffffffffffffffffffffffffffffff166340c10f19600260009054906101000a900473ffffffffffffffffffffffffffffffffffffffff166a95ed2e302a973e3d4000006040518363ffffffff167c0100000000000000000000000000000000000000000000000000000000028152600401808373ffffffffffffffffffffffffffffffffffffffff1673ffffffffffffffffffffffffffffffffffffffff16815260200182815260200192505050602060405180830381600087803b15801561198f57600080fd5b505af11580156119a3573d6000803e3d6000fd5b505050506040513d60208110156119b957600080fd5b810190808051906020019092919050505050600160009054906101000a900473ffffffffffffffffffffffffffffffffffffffff1673ffffffffffffffffffffffffffffffffffffffff16637d64bcb46040518163ffffffff167c0100000000000000000000000000000000000000000000000000000000028152600401602060405180830381600087803b158015611a5157600080fd5b505af1158015611a65573d6000803e3d6000fd5b505050506040513d6020811015611a7b57600080fd5b810190808051906020019092919050505050600160009054906101000a900473ffffffffffffffffffffffffffffffffffffffff1673ffffffffffffffffffffffffffffffffffffffff16633f4ba83a6040518163ffffffff167c0100000000000000000000000000000000000000000000000000000000028152600401600060405180830381600087803b158015611b1357600080fd5b505af1158015611b27573d6000803e3d6000fd5b50505050611b33611f46565b565b600080600960003373ffffffffffffffffffffffffffffffffffffffff1673ffffffffffffffffffffffffffffffffffffffff16815260200190815260200160002091508160000160009054906101000a900460ff16151515611b9757600080fd5b81600101549050600081111515611bad57600080fd5b6000826001018190555060008260020181905550611bd681600854611f4890919063ffffffff16565b6008819055503373ffffffffffffffffffffffffffffffffffffffff166108fc829081150290604051600060405180830381858888f19350505050158015611c22573d6000803e3d6000fd5b507fca2b4d68e42b50bb8686d4e808d2fb68c569d9b8f497cc8784d7fe315d889e873382604051808373ffffffffffffffffffffffffffffffffffffffff1673ffffffffffffffffffffffffffffffffffffffff1681526020018281526020019250505060405180910390a13073ffffffffffffffffffffffffffffffffffffffff163160085411151515611cb357fe5b5050565b611ccc81600854611f4890919063ffffffff16565b600881905550600260009054906101000a900473ffffffffffffffffffffffffffffffffffffffff1673ffffffffffffffffffffffffffffffffffffffff166108fc829081150290604051600060405180830381858888f19350505050158015611d3a573d6000803e3d6000fd5b5050565b80600d5410151515611d4f57600080fd5b611d6481600d54611f4890919063ffffffff16565b600d81905550611d748282611f61565b5050565b600073ffffffffffffffffffffffffffffffffffffffff168173ffffffffffffffffffffffffffffffffffffffff1614151515611db457600080fd5b8073ffffffffffffffffffffffffffffffffffffffff166000809054906101000a900473ffffffffffffffffffffffffffffffffffffffff1673ffffffffffffffffffffffffffffffffffffffff167f8be0079c531659141344cd1fd0a4f28419497f9722a3daafe3b4186f6b6457e060405160405180910390a3806000806101000a81548173ffffffffffffffffffffffffffffffffffffffff021916908373ffffffffffffffffffffffffffffffffffffffff16021790555050565b6005544210158015611e8657506006544211155b1515611e9157600080fd5b611e9b8282612070565b5050565b600080831415611eb25760009050611ed1565b8183029050818382811515611ec357fe5b04141515611ecd57fe5b8090505b92915050565b600260009054906101000a900473ffffffffffffffffffffffffffffffffffffffff1673ffffffffffffffffffffffffffffffffffffffff166108fc349081150290604051600060405180830381858888f19350505050158015611f3f573d6000803e3d6000fd5b50565b5050565b565b6000828211151515611f5657fe5b818303905092915050565b600160009054906101000a900473ffffffffffffffffffffffffffffffffffffffff1673ffffffffffffffffffffffffffffffffffffffff166340c10f1983836040518363ffffffff167c0100000000000000000000000000000000000000000000000000000000028152600401808373ffffffffffffffffffffffffffffffffffffffff1673ffffffffffffffffffffffffffffffffffffffff16815260200182815260200192505050602060405180830381600087803b15801561202657600080fd5b505af115801561203a573d6000803e3d6000fd5b505050506040513d602081101561205057600080fd5b8101908080519060200190929190505050151561206c57600080fd5b5050565b600073ffffffffffffffffffffffffffffffffffffffff168273ffffffffffffffffffffffffffffffffffffffff16141515156120ac57600080fd5b600081141515156120bc57600080fd5b50505600a165627a7a72305820269284f6f64af58c3bdd1d6cd2f1140dfc3df448092e197c6906cd46004e71090029",
  "source": "pragma solidity 0.4.24;\n\nimport \"../node_modules/openzeppelin-solidity/contracts/token/ERC20/ERC20.sol\";\nimport \"../node_modules/openzeppelin-solidity/contracts/crowdsale/distribution/FinalizableCrowdsale.sol\";\nimport \"../node_modules/openzeppelin-solidity/contracts/crowdsale/emission/MintedCrowdsale.sol\";\nimport \"./PostKYCCrowdsale.sol\";\nimport \"./GoForItToken.sol\";\n\n\n/// @title GoForItTokenSale\n/// @author Sicos et al.\ncontract GoForItTokenSale is PostKYCCrowdsale, MintedCrowdsale {\n\n    // Maxmimum number of tokens sold\n    uint public constant TOTAL_TOKEN_CAP_OF_SALE = 1250000000e18;  // = 1.250.000.000 e18\n\n    // Extra tokens minted upon finalization\n    uint public constant TOKEN_SHARE_OF_PRESALE  =  5511842425e18;  // =  5.511.842.425 e18\n    uint public constant TOKEN_SHARE_OF_TEAM     =  1100000000e18;  // =  1.100.000.000 e18\n    uint public constant TOKEN_SHARE_OF_ADVISORS =  1087500000e18;  // =  1.087.500.000 e18\n    uint public constant TOKEN_SHARE_OF_COMPANY  =  3369407575e18;  // =  3.369.407.575 e18\n    uint public constant TOKEN_SHARE_OF_BOUNTY   =   181250000e18;  // =    181.250.000 e18\n\n    // Date/time constants\n    uint public constant SALE_OPENING_TIME     = 1000000000;  // 201X-00-00 00:00:00 CEST\n    uint public constant SALE_CLOSING_TIME     = 2000000000;  // 201X-00-00 00:00:00 CEST\n\n    // addresses token shares are minted to in finalization\n    address public preSaleVestingContract;\n    address public teamAdvisorVestingContract;\n    address public companyVestingContract;\n\n    // Amount of token available for purchase\n    uint public remainingTokensForSale;\n\n    /// @dev Log entry on rate changed\n    /// @param newRate the new rate\n    event RateChanged(uint newRate);\n\n    /// @dev Constructor\n    /// @param _token A GoForItToken\n    /// @param _rate the initial rate.\n    /// @param _preSaleVestingContract Ethereum address of Presale vesting contract\n    /// @param _teamAdvisorVestingContract Ethereum address of Team and Advisors vesting contract\n    /// @param _companyVestingContract Ethereum address of company vesting contract\n    /// @param _wallet MultiSig wallet address the ETH is forwarded to.\n    constructor(\n        GoForItToken _token,\n        uint _rate,\n        address _preSaleVestingContract,\n        address _teamAdvisorVestingContract,\n        address _companyVestingContract,\n        address _wallet\n    )\n        public\n        Crowdsale(_rate, _wallet, _token)\n        TimedCrowdsale(SALE_OPENING_TIME, SALE_CLOSING_TIME)\n    {\n\n        // Sanity check of addresses\n        require(_preSaleVestingContract != address(0)\n                && _teamAdvisorVestingContract != address(0)\n                && _companyVestingContract != address(0));\n\n\n        preSaleVestingContract = _preSaleVestingContract;\n        teamAdvisorVestingContract = _teamAdvisorVestingContract;\n        companyVestingContract = _companyVestingContract;\n\n        remainingTokensForSale = TOTAL_TOKEN_CAP_OF_SALE;\n    }\n\n    /// @dev Set rate\n    /// @param _newRate the new rate\n    function setRate(uint _newRate) public onlyOwner {\n        // A rate change by a magnitude order of ten and above is rather a typo than intention.\n        // If it was indeed desired, several setRate transactions have to be sent.\n        require(rate / 10 < _newRate && _newRate < 10 * rate);\n\n        rate = _newRate;\n\n        emit RateChanged(_newRate);\n    }\n\n    /// @dev unverified investors can withdraw their money only after the GoForIt Sale ended\n    function withdrawInvestment() public {\n        require(hasClosed());\n\n        super.withdrawInvestment();\n    }\n\n\n    /// @dev Is the GoForIt main sale ongoing?\n    /// @return bool\n    function GoForItSaleOngoing() public view returns (bool) {\n        return SALE_OPENING_TIME <= now && now <= SALE_CLOSING_TIME;\n    }\n\n    /// @dev Deliver tokens\n    /// @param _beneficiary an investors Ethereum address\n    /// @param _tokenAmount token amount to deliver\n    function _deliverTokens(address _beneficiary, uint _tokenAmount) internal {\n        require(remainingTokensForSale >= _tokenAmount);\n        remainingTokensForSale = remainingTokensForSale.sub(_tokenAmount);\n\n        super._deliverTokens(_beneficiary, _tokenAmount);\n    }\n\n    /// @dev Finalization\n    function finalization() internal {\n        require(hasClosed());\n\n        GoForItToken(token).mint(preSaleVestingContract, TOKEN_SHARE_OF_PRESALE);\n        GoForItToken(token).mint(teamAdvisorVestingContract, TOKEN_SHARE_OF_ADVISORS);\n        GoForItToken(token).mint(companyVestingContract, TOKEN_SHARE_OF_COMPANY);\n\n        GoForItToken(token).mint(teamAdvisorVestingContract, (TOKEN_SHARE_OF_TEAM *75)/100);\n        GoForItToken(token).mint(wallet, (TOKEN_SHARE_OF_TEAM  *25)/100);\n\n        GoForItToken(token).mint(wallet, TOKEN_SHARE_OF_BOUNTY);\n\n\n        GoForItToken(token).finishMinting();\n        GoForItToken(token).unpause();\n\n        super.finalization();\n    }\n\n}\n",
  "sourcePath": "/home/lukas/sicos/smartcontracts/contracts/GoForItTokenSale.sol",
  "compiler": {
    "name": "solc",
    "version": "0.4.24+commit.e67f0147.Emscripten.clang"
  },
  "schemaVersion": "2.0.1",
  "updatedAt": "2018-12-04T16:30:20.685Z"
}