{
  "contractName": "GoForItTokenSale",
  "abi": [
    {
      "constant": true,
      "inputs": [],
      "name": "hasClosed",
      "outputs": [
        {
          "name": "",
          "type": "bool"
        }
      ],
      "payable": false,
      "stateMutability": "view",
      "type": "function"
    },
    {
      "constant": true,
      "inputs": [],
      "name": "pendingWeiAmount",
      "outputs": [
        {
          "name": "",
          "type": "uint256"
        }
      ],
      "payable": false,
      "stateMutability": "view",
      "type": "function"
    },
    {
      "constant": true,
      "inputs": [],
      "name": "rate",
      "outputs": [
        {
          "name": "",
          "type": "uint256"
        }
      ],
      "payable": false,
      "stateMutability": "view",
      "type": "function"
    },
    {
      "constant": true,
      "inputs": [],
      "name": "oneYearVesting",
      "outputs": [
        {
          "name": "",
          "type": "address"
        }
      ],
      "payable": false,
      "stateMutability": "view",
      "type": "function"
    },
    {
      "constant": true,
      "inputs": [],
      "name": "weiRaised",
      "outputs": [
        {
          "name": "",
          "type": "uint256"
        }
      ],
      "payable": false,
      "stateMutability": "view",
      "type": "function"
    },
    {
      "constant": true,
      "inputs": [],
      "name": "closingTime",
      "outputs": [
        {
          "name": "",
          "type": "uint256"
        }
      ],
      "payable": false,
      "stateMutability": "view",
      "type": "function"
    },
    {
      "constant": false,
      "inputs": [],
      "name": "finalize",
      "outputs": [],
      "payable": false,
      "stateMutability": "nonpayable",
      "type": "function"
    },
    {
      "constant": true,
      "inputs": [],
      "name": "wallet",
      "outputs": [
        {
          "name": "",
          "type": "address"
        }
      ],
      "payable": false,
      "stateMutability": "view",
      "type": "function"
    },
    {
      "constant": true,
      "inputs": [],
      "name": "SALE_CLOSING_TIME",
      "outputs": [
        {
          "name": "",
          "type": "uint256"
        }
      ],
      "payable": false,
      "stateMutability": "view",
      "type": "function"
    },
    {
      "constant": true,
      "inputs": [],
      "name": "TOKEN_SHARE_OF_ADVISORS",
      "outputs": [
        {
          "name": "",
          "type": "uint256"
        }
      ],
      "payable": false,
      "stateMutability": "view",
      "type": "function"
    },
    {
      "constant": false,
      "inputs": [],
      "name": "renounceOwnership",
      "outputs": [],
      "payable": false,
      "stateMutability": "nonpayable",
      "type": "function"
    },
    {
      "constant": true,
      "inputs": [],
      "name": "isFinalized",
      "outputs": [
        {
          "name": "",
          "type": "bool"
        }
      ],
      "payable": false,
      "stateMutability": "view",
      "type": "function"
    },
    {
      "constant": true,
      "inputs": [],
      "name": "owner",
      "outputs": [
        {
          "name": "",
          "type": "address"
        }
      ],
      "payable": false,
      "stateMutability": "view",
      "type": "function"
    },
    {
      "constant": true,
      "inputs": [],
      "name": "twoYearVesting",
      "outputs": [
        {
          "name": "",
          "type": "address"
        }
      ],
      "payable": false,
      "stateMutability": "view",
      "type": "function"
    },
    {
      "constant": true,
      "inputs": [],
      "name": "TOKEN_SHARE_OF_TEAM",
      "outputs": [
        {
          "name": "",
          "type": "uint256"
        }
      ],
      "payable": false,
      "stateMutability": "view",
      "type": "function"
    },
    {
      "constant": true,
      "inputs": [
        {
          "name": "",
          "type": "address"
        }
      ],
      "name": "investments",
      "outputs": [
        {
          "name": "isVerified",
          "type": "bool"
        },
        {
          "name": "totalWeiInvested",
          "type": "uint256"
        },
        {
          "name": "pendingTokenAmount",
          "type": "uint256"
        }
      ],
      "payable": false,
      "stateMutability": "view",
      "type": "function"
    },
    {
      "constant": true,
      "inputs": [],
      "name": "remainingTokensForSale",
      "outputs": [
        {
          "name": "",
          "type": "uint256"
        }
      ],
      "payable": false,
      "stateMutability": "view",
      "type": "function"
    },
    {
      "constant": true,
      "inputs": [],
      "name": "TOKEN_SHARE_OF_BOUNTY",
      "outputs": [
        {
          "name": "",
          "type": "uint256"
        }
      ],
      "payable": false,
      "stateMutability": "view",
      "type": "function"
    },
    {
      "constant": true,
      "inputs": [],
      "name": "TOKEN_SHARE_OF_COMPANY",
      "outputs": [
        {
          "name": "",
          "type": "uint256"
        }
      ],
      "payable": false,
      "stateMutability": "view",
      "type": "function"
    },
    {
      "constant": true,
      "inputs": [],
      "name": "TOTAL_TOKEN_CAP_OF_SALE",
      "outputs": [
        {
          "name": "",
          "type": "uint256"
        }
      ],
      "payable": false,
      "stateMutability": "view",
      "type": "function"
    },
    {
      "constant": true,
      "inputs": [],
      "name": "openingTime",
      "outputs": [
        {
          "name": "",
          "type": "uint256"
        }
      ],
      "payable": false,
      "stateMutability": "view",
      "type": "function"
    },
    {
      "constant": false,
      "inputs": [
        {
          "name": "_investors",
          "type": "address[]"
        }
      ],
      "name": "verifyInvestors",
      "outputs": [],
      "payable": false,
      "stateMutability": "nonpayable",
      "type": "function"
    },
    {
      "constant": true,
      "inputs": [],
      "name": "SALE_OPENING_TIME",
      "outputs": [
        {
          "name": "",
          "type": "uint256"
        }
      ],
      "payable": false,
      "stateMutability": "view",
      "type": "function"
    },
    {
      "constant": false,
      "inputs": [
        {
          "name": "_beneficiary",
          "type": "address"
        }
      ],
      "name": "buyTokens",
      "outputs": [],
      "payable": true,
      "stateMutability": "payable",
      "type": "function"
    },
    {
      "constant": false,
      "inputs": [
        {
          "name": "_newOwner",
          "type": "address"
        }
      ],
      "name": "transferOwnership",
      "outputs": [],
      "payable": false,
      "stateMutability": "nonpayable",
      "type": "function"
    },
    {
      "constant": true,
      "inputs": [],
      "name": "TOKEN_SHARE_OF_PRESALE",
      "outputs": [
        {
          "name": "",
          "type": "uint256"
        }
      ],
      "payable": false,
      "stateMutability": "view",
      "type": "function"
    },
    {
      "constant": true,
      "inputs": [],
      "name": "token",
      "outputs": [
        {
          "name": "",
          "type": "address"
        }
      ],
      "payable": false,
      "stateMutability": "view",
      "type": "function"
    },
    {
      "inputs": [
        {
          "name": "_token",
          "type": "address"
        },
        {
          "name": "_rate",
          "type": "uint256"
        },
        {
          "name": "_wallet",
          "type": "address"
        }
      ],
      "payable": false,
      "stateMutability": "nonpayable",
      "type": "constructor"
    },
    {
      "payable": true,
      "stateMutability": "payable",
      "type": "fallback"
    },
    {
      "anonymous": false,
      "inputs": [
        {
          "indexed": false,
          "name": "newRate",
          "type": "uint256"
        }
      ],
      "name": "RateChanged",
      "type": "event"
    },
    {
      "anonymous": false,
      "inputs": [
        {
          "indexed": false,
          "name": "investor",
          "type": "address"
        }
      ],
      "name": "InvestorVerified",
      "type": "event"
    },
    {
      "anonymous": false,
      "inputs": [
        {
          "indexed": false,
          "name": "investor",
          "type": "address"
        },
        {
          "indexed": false,
          "name": "amount",
          "type": "uint256"
        }
      ],
      "name": "TokensDelivered",
      "type": "event"
    },
    {
      "anonymous": false,
      "inputs": [
        {
          "indexed": false,
          "name": "investor",
          "type": "address"
        },
        {
          "indexed": false,
          "name": "value",
          "type": "uint256"
        }
      ],
      "name": "InvestmentWithdrawn",
      "type": "event"
    },
    {
      "anonymous": false,
      "inputs": [],
      "name": "Finalized",
      "type": "event"
    },
    {
      "anonymous": false,
      "inputs": [
        {
          "indexed": true,
          "name": "purchaser",
          "type": "address"
        },
        {
          "indexed": true,
          "name": "beneficiary",
          "type": "address"
        },
        {
          "indexed": false,
          "name": "value",
          "type": "uint256"
        },
        {
          "indexed": false,
          "name": "amount",
          "type": "uint256"
        }
      ],
      "name": "TokenPurchase",
      "type": "event"
    },
    {
      "anonymous": false,
      "inputs": [
        {
          "indexed": true,
          "name": "previousOwner",
          "type": "address"
        }
      ],
      "name": "OwnershipRenounced",
      "type": "event"
    },
    {
      "anonymous": false,
      "inputs": [
        {
          "indexed": true,
          "name": "previousOwner",
          "type": "address"
        },
        {
          "indexed": true,
          "name": "newOwner",
          "type": "address"
        }
      ],
      "name": "OwnershipTransferred",
      "type": "event"
    },
    {
      "constant": false,
      "inputs": [
        {
          "name": "_newRate",
          "type": "uint256"
        }
      ],
      "name": "setRate",
      "outputs": [],
      "payable": false,
      "stateMutability": "nonpayable",
      "type": "function"
    },
    {
      "constant": false,
      "inputs": [],
      "name": "withdrawInvestment",
      "outputs": [],
      "payable": false,
      "stateMutability": "nonpayable",
      "type": "function"
    },
    {
      "constant": true,
      "inputs": [],
      "name": "GoForItSaleOngoing",
      "outputs": [
        {
          "name": "",
          "type": "bool"
        }
      ],
      "payable": false,
      "stateMutability": "view",
      "type": "function"
    }
  ],
  "bytecode": "0x60806040526000600760006101000a81548160ff021916908315150217905550600060085534801561003057600080fd5b506040516060806200357d833981018060405281019080805190602001909291908051906020019092919080519060200190929190505050633b9aca006377359400838386336000806101000a81548173ffffffffffffffffffffffffffffffffffffffff021916908373ffffffffffffffffffffffffffffffffffffffff1602179055506000831115156100c457600080fd5b600073ffffffffffffffffffffffffffffffffffffffff168273ffffffffffffffffffffffffffffffffffffffff161415151561010057600080fd5b600073ffffffffffffffffffffffffffffffffffffffff168173ffffffffffffffffffffffffffffffffffffffff161415151561013c57600080fd5b8260038190555081600260006101000a81548173ffffffffffffffffffffffffffffffffffffffff021916908373ffffffffffffffffffffffffffffffffffffffff16021790555080600160006101000a81548173ffffffffffffffffffffffffffffffffffffffff021916908373ffffffffffffffffffffffffffffffffffffffff1602179055505050504282101515156101d757600080fd5b8181101515156101e657600080fd5b816005819055508060068190555050506b0409f9cbc7c4a04c22000000600c81905550505050613361806200021c6000396000f300608060405260043610610180576000357c0100000000000000000000000000000000000000000000000000000000900463ffffffff1680631515bc2b1461018b57806327b44a6c146101ba5780632c4e722e146101e557806334fcf437146102105780633ec18ad31461023d5780634042b66f146102945780634b6753bc146102bf5780634bb278f3146102ea578063521eb273146103015780635959306f146103585780636927e45a14610383578063715018a6146103ae57806388d0e22b146103c55780638d4e4083146103f45780638da5cb5b1461042357806394f5d3e01461047a5780639584fbfc146104d157806396b98862146104fc5780639b39f9bf146105655780639c001bcc146105905780639f9cb8e1146105bb578063b1a2bbd1146105e6578063b7a8807c14610611578063bf3e394e1461063c578063c69b5dfb14610653578063d4573284146106b9578063ec8ac4d8146106e4578063f2fde38b1461071a578063f99490b81461075d578063fc0c546a14610788575b610189336107df565b005b34801561019757600080fd5b506101a06108ad565b604051808215151515815260200191505060405180910390f35b3480156101c657600080fd5b506101cf6108b9565b6040518082815260200191505060405180910390f35b3480156101f157600080fd5b506101fa6108bf565b6040518082815260200191505060405180910390f35b34801561021c57600080fd5b5061023b600480360381019080803590602001909291905050506108c5565b005b34801561024957600080fd5b5061025261098d565b604051808273ffffffffffffffffffffffffffffffffffffffff1673ffffffffffffffffffffffffffffffffffffffff16815260200191505060405180910390f35b3480156102a057600080fd5b506102a96109b3565b6040518082815260200191505060405180910390f35b3480156102cb57600080fd5b506102d46109b9565b6040518082815260200191505060405180910390f35b3480156102f657600080fd5b506102ff6109bf565b005b34801561030d57600080fd5b50610316610a9a565b604051808273ffffffffffffffffffffffffffffffffffffffff1673ffffffffffffffffffffffffffffffffffffffff16815260200191505060405180910390f35b34801561036457600080fd5b5061036d610ac0565b6040518082815260200191505060405180910390f35b34801561038f57600080fd5b50610398610ac8565b6040518082815260200191505060405180910390f35b3480156103ba57600080fd5b506103c3610ad8565b005b3480156103d157600080fd5b506103da610bda565b604051808215151515815260200191505060405180910390f35b34801561040057600080fd5b50610409610bf9565b604051808215151515815260200191505060405180910390f35b34801561042f57600080fd5b50610438610c0c565b604051808273ffffffffffffffffffffffffffffffffffffffff1673ffffffffffffffffffffffffffffffffffffffff16815260200191505060405180910390f35b34801561048657600080fd5b5061048f610c31565b604051808273ffffffffffffffffffffffffffffffffffffffff1673ffffffffffffffffffffffffffffffffffffffff16815260200191505060405180910390f35b3480156104dd57600080fd5b506104e6610c57565b6040518082815260200191505060405180910390f35b34801561050857600080fd5b5061053d600480360381019080803573ffffffffffffffffffffffffffffffffffffffff169060200190929190505050610c67565b6040518084151515158152602001838152602001828152602001935050505060405180910390f35b34801561057157600080fd5b5061057a610c9e565b6040518082815260200191505060405180910390f35b34801561059c57600080fd5b506105a5610ca4565b6040518082815260200191505060405180910390f35b3480156105c757600080fd5b506105d0610cb3565b6040518082815260200191505060405180910390f35b3480156105f257600080fd5b506105fb610cc3565b6040518082815260200191505060405180910390f35b34801561061d57600080fd5b50610626610cd3565b6040518082815260200191505060405180910390f35b34801561064857600080fd5b50610651610cd9565b005b34801561065f57600080fd5b506106b760048036038101908080359060200190820180359060200190808060200260200160405190810160405280939291908181526020018383602002808284378201915050505050509192919290505050610cf6565b005b3480156106c557600080fd5b506106ce610f08565b6040518082815260200191505060405180910390f35b610718600480360381019080803573ffffffffffffffffffffffffffffffffffffffff1690602001909291905050506107df565b005b34801561072657600080fd5b5061075b600480360381019080803573ffffffffffffffffffffffffffffffffffffffff169060200190929190505050610f10565b005b34801561076957600080fd5b50610772610f77565b6040518082815260200191505060405180910390f35b34801561079457600080fd5b5061079d610f87565b604051808273ffffffffffffffffffffffffffffffffffffffff1673ffffffffffffffffffffffffffffffffffffffff16815260200191505060405180910390f35b6000803491506107ef8383610fad565b6107f882610ff5565b905061080f8260045461101390919063ffffffff16565b60048190555061081f838261102f565b8273ffffffffffffffffffffffffffffffffffffffff163373ffffffffffffffffffffffffffffffffffffffff167f623b3804fa71d67900d064613da8f94b9617215ee90799290593e1745087ad188484604051808381526020018281526020019250505060405180910390a36108968383611162565b61089e611166565b6108a883836111c6565b505050565b60006006544211905090565b60085481565b60035481565b6000809054906101000a900473ffffffffffffffffffffffffffffffffffffffff1673ffffffffffffffffffffffffffffffffffffffff163373ffffffffffffffffffffffffffffffffffffffff1614151561092057600080fd5b80600a60035481151561092f57fe5b041080156109415750600354600a0281105b151561094c57600080fd5b806003819055507f595a30f13a69b616c4d568e2a2b7875fdfe86e4300a049953c76ee278f8f3f10816040518082815260200191505060405180910390a150565b600a60009054906101000a900473ffffffffffffffffffffffffffffffffffffffff1681565b60045481565b60065481565b6000809054906101000a900473ffffffffffffffffffffffffffffffffffffffff1673ffffffffffffffffffffffffffffffffffffffff163373ffffffffffffffffffffffffffffffffffffffff16141515610a1a57600080fd5b600760009054906101000a900460ff16151515610a3657600080fd5b610a3e6108ad565b1515610a4957600080fd5b610a516111f9565b7f6823b073d48d6e3a7d385eeb601452d680e74bb46afe3255a7d778f3a9b1768160405160405180910390a16001600760006101000a81548160ff021916908315150217905550565b600260009054906101000a900473ffffffffffffffffffffffffffffffffffffffff1681565b637735940081565b6b03838f1520ff8b756f80000081565b6000809054906101000a900473ffffffffffffffffffffffffffffffffffffffff1673ffffffffffffffffffffffffffffffffffffffff163373ffffffffffffffffffffffffffffffffffffffff16141515610b3357600080fd5b6000809054906101000a900473ffffffffffffffffffffffffffffffffffffffff1673ffffffffffffffffffffffffffffffffffffffff167ff8df31144d9c2f0f6b59d69b8b98abd5459d07f2742c4df920b25aae33c6482060405160405180910390a260008060006101000a81548173ffffffffffffffffffffffffffffffffffffffff021916908373ffffffffffffffffffffffffffffffffffffffff160217905550565b600042633b9aca0011158015610bf4575063773594004211155b905090565b600760009054906101000a900460ff1681565b6000809054906101000a900473ffffffffffffffffffffffffffffffffffffffff1681565b600b60009054906101000a900473ffffffffffffffffffffffffffffffffffffffff1681565b6b038de60f7c988d0fcc00000081565b60096020528060005260406000206000915090508060000160009054906101000a900460ff16908060010154908060020154905083565b600c5481565b6a95ed2e302a973e3d40000081565b6b0ae31bcea3e48655b2fc000081565b6b0409f9cbc7c4a04c2200000081565b60055481565b610ce16108ad565b1515610cec57600080fd5b610cf4611e31565b565b6000806000806000809054906101000a900473ffffffffffffffffffffffffffffffffffffffff1673ffffffffffffffffffffffffffffffffffffffff163373ffffffffffffffffffffffffffffffffffffffff16141515610d5757600080fd5b600093505b8451841015610f01578484815181101515610d7357fe5b906020019060200201519250600960008473ffffffffffffffffffffffffffffffffffffffff1673ffffffffffffffffffffffffffffffffffffffff16815260200190815260200160002091508160000160009054906101000a900460ff161515610ef65760018260000160006101000a81548160ff0219169083151502179055507f293e993e01bc214772c3f076d0b72798191877356179e95807eba63d2f8d2df283604051808273ffffffffffffffffffffffffffffffffffffffff1673ffffffffffffffffffffffffffffffffffffffff16815260200191505060405180910390a1816002015490506000811115610ef55760008260020181905550610e7f8260010154611fb3565b610e89838261203a565b7f8fbcf3d47879dffedfcda6d2f03ed557bea5305b6ef6484d3cc06750f13b8e0e8382604051808373ffffffffffffffffffffffffffffffffffffffff1673ffffffffffffffffffffffffffffffffffffffff1681526020018281526020019250505060405180910390a15b5b836001019350610d5c565b5050505050565b633b9aca0081565b6000809054906101000a900473ffffffffffffffffffffffffffffffffffffffff1673ffffffffffffffffffffffffffffffffffffffff163373ffffffffffffffffffffffffffffffffffffffff16141515610f6b57600080fd5b610f7481612074565b50565b6b11cf4a0894426c940644000081565b600160009054906101000a900473ffffffffffffffffffffffffffffffffffffffff1681565b3373ffffffffffffffffffffffffffffffffffffffff168273ffffffffffffffffffffffffffffffffffffffff16141515610fe757600080fd5b610ff1828261216e565b5050565b600061100c6003548361219b90919063ffffffff16565b9050919050565b6000818301905082811015151561102657fe5b80905092915050565b6000600960003373ffffffffffffffffffffffffffffffffffffffff1673ffffffffffffffffffffffffffffffffffffffff168152602001908152602001600020905061108934826001015461101390919063ffffffff16565b81600101819055508060000160009054906101000a900460ff1615611122576110b2338361203a565b7f8fbcf3d47879dffedfcda6d2f03ed557bea5305b6ef6484d3cc06750f13b8e0e3383604051808373ffffffffffffffffffffffffffffffffffffffff1673ffffffffffffffffffffffffffffffffffffffff1681526020018281526020019250505060405180910390a161115d565b61113982826002015461101390919063ffffffff16565b81600201819055506111563460085461101390919063ffffffff16565b6008819055505b505050565b5050565b600960003373ffffffffffffffffffffffffffffffffffffffff1673ffffffffffffffffffffffffffffffffffffffff16815260200190815260200160002060000160009054906101000a900460ff16156111c4576111c36121d3565b5b565b6111d0338261223e565b3073ffffffffffffffffffffffffffffffffffffffff1631600854111515156111f557fe5b5050565b6112016108ad565b151561120c57600080fd5b600160009054906101000a900473ffffffffffffffffffffffffffffffffffffffff166301e13380420161123e6123bc565b808373ffffffffffffffffffffffffffffffffffffffff1673ffffffffffffffffffffffffffffffffffffffff16815260200182815260200192505050604051809103906000f080158015611297573d6000803e3d6000fd5b50600a60006101000a81548173ffffffffffffffffffffffffffffffffffffffff021916908373ffffffffffffffffffffffffffffffffffffffff160217905550600a60009054906101000a900473ffffffffffffffffffffffffffffffffffffffff1673ffffffffffffffffffffffffffffffffffffffff1663f2fde38b6000809054906101000a900473ffffffffffffffffffffffffffffffffffffffff166040518263ffffffff167c0100000000000000000000000000000000000000000000000000000000028152600401808273ffffffffffffffffffffffffffffffffffffffff1673ffffffffffffffffffffffffffffffffffffffff168152602001915050600060405180830381600087803b1580156113b657600080fd5b505af11580156113ca573d6000803e3d6000fd5b50505050600160009054906101000a900473ffffffffffffffffffffffffffffffffffffffff1673ffffffffffffffffffffffffffffffffffffffff166340c10f19600a60009054906101000a900473ffffffffffffffffffffffffffffffffffffffff166b0ae31bcea3e48655b2fc00006040518363ffffffff167c0100000000000000000000000000000000000000000000000000000000028152600401808373ffffffffffffffffffffffffffffffffffffffff1673ffffffffffffffffffffffffffffffffffffffff16815260200182815260200192505050602060405180830381600087803b1580156114c157600080fd5b505af11580156114d5573d6000803e3d6000fd5b505050506040513d60208110156114eb57600080fd5b810190808051906020019092919050505050600160009054906101000a900473ffffffffffffffffffffffffffffffffffffffff1673ffffffffffffffffffffffffffffffffffffffff166340c10f19600a60009054906101000a900473ffffffffffffffffffffffffffffffffffffffff166b11cf4a0894426c94064400006040518363ffffffff167c0100000000000000000000000000000000000000000000000000000000028152600401808373ffffffffffffffffffffffffffffffffffffffff1673ffffffffffffffffffffffffffffffffffffffff16815260200182815260200192505050602060405180830381600087803b1580156115f057600080fd5b505af1158015611604573d6000803e3d6000fd5b505050506040513d602081101561161a57600080fd5b810190808051906020019092919050505050600160009054906101000a900473ffffffffffffffffffffffffffffffffffffffff166303c26700420161165e6123bc565b808373ffffffffffffffffffffffffffffffffffffffff1673ffffffffffffffffffffffffffffffffffffffff16815260200182815260200192505050604051809103906000f0801580156116b7573d6000803e3d6000fd5b50600b60006101000a81548173ffffffffffffffffffffffffffffffffffffffff021916908373ffffffffffffffffffffffffffffffffffffffff160217905550600b60009054906101000a900473ffffffffffffffffffffffffffffffffffffffff1673ffffffffffffffffffffffffffffffffffffffff1663f2fde38b6000809054906101000a900473ffffffffffffffffffffffffffffffffffffffff166040518263ffffffff167c0100000000000000000000000000000000000000000000000000000000028152600401808273ffffffffffffffffffffffffffffffffffffffff1673ffffffffffffffffffffffffffffffffffffffff168152602001915050600060405180830381600087803b1580156117d657600080fd5b505af11580156117ea573d6000803e3d6000fd5b50505050600160009054906101000a900473ffffffffffffffffffffffffffffffffffffffff1673ffffffffffffffffffffffffffffffffffffffff166340c10f19600b60009054906101000a900473ffffffffffffffffffffffffffffffffffffffff166b03838f1520ff8b756f8000006040518363ffffffff167c0100000000000000000000000000000000000000000000000000000000028152600401808373ffffffffffffffffffffffffffffffffffffffff1673ffffffffffffffffffffffffffffffffffffffff16815260200182815260200192505050602060405180830381600087803b1580156118e157600080fd5b505af11580156118f5573d6000803e3d6000fd5b505050506040513d602081101561190b57600080fd5b810190808051906020019092919050505050600160009054906101000a900473ffffffffffffffffffffffffffffffffffffffff1673ffffffffffffffffffffffffffffffffffffffff166340c10f19600b60009054906101000a900473ffffffffffffffffffffffffffffffffffffffff166064604b6b038de60f7c988d0fcc0000000281151561199957fe5b046040518363ffffffff167c0100000000000000000000000000000000000000000000000000000000028152600401808373ffffffffffffffffffffffffffffffffffffffff1673ffffffffffffffffffffffffffffffffffffffff16815260200182815260200192505050602060405180830381600087803b158015611a1f57600080fd5b505af1158015611a33573d6000803e3d6000fd5b505050506040513d6020811015611a4957600080fd5b810190808051906020019092919050505050600160009054906101000a900473ffffffffffffffffffffffffffffffffffffffff1673ffffffffffffffffffffffffffffffffffffffff166340c10f19600260009054906101000a900473ffffffffffffffffffffffffffffffffffffffff16606460196b038de60f7c988d0fcc00000002811515611ad757fe5b046040518363ffffffff167c0100000000000000000000000000000000000000000000000000000000028152600401808373ffffffffffffffffffffffffffffffffffffffff1673ffffffffffffffffffffffffffffffffffffffff16815260200182815260200192505050602060405180830381600087803b158015611b5d57600080fd5b505af1158015611b71573d6000803e3d6000fd5b505050506040513d6020811015611b8757600080fd5b810190808051906020019092919050505050600160009054906101000a900473ffffffffffffffffffffffffffffffffffffffff1673ffffffffffffffffffffffffffffffffffffffff166340c10f19600260009054906101000a900473ffffffffffffffffffffffffffffffffffffffff166a95ed2e302a973e3d4000006040518363ffffffff167c0100000000000000000000000000000000000000000000000000000000028152600401808373ffffffffffffffffffffffffffffffffffffffff1673ffffffffffffffffffffffffffffffffffffffff16815260200182815260200192505050602060405180830381600087803b158015611c8b57600080fd5b505af1158015611c9f573d6000803e3d6000fd5b505050506040513d6020811015611cb557600080fd5b810190808051906020019092919050505050600160009054906101000a900473ffffffffffffffffffffffffffffffffffffffff1673ffffffffffffffffffffffffffffffffffffffff16637d64bcb46040518163ffffffff167c0100000000000000000000000000000000000000000000000000000000028152600401602060405180830381600087803b158015611d4d57600080fd5b505af1158015611d61573d6000803e3d6000fd5b505050506040513d6020811015611d7757600080fd5b810190808051906020019092919050505050600160009054906101000a900473ffffffffffffffffffffffffffffffffffffffff1673ffffffffffffffffffffffffffffffffffffffff16633f4ba83a6040518163ffffffff167c0100000000000000000000000000000000000000000000000000000000028152600401600060405180830381600087803b158015611e0f57600080fd5b505af1158015611e23573d6000803e3d6000fd5b50505050611e2f612242565b565b600080600960003373ffffffffffffffffffffffffffffffffffffffff1673ffffffffffffffffffffffffffffffffffffffff16815260200190815260200160002091508160000160009054906101000a900460ff16151515611e9357600080fd5b81600101549050600081111515611ea957600080fd5b6000826001018190555060008260020181905550611ed28160085461224490919063ffffffff16565b6008819055503373ffffffffffffffffffffffffffffffffffffffff166108fc829081150290604051600060405180830381858888f19350505050158015611f1e573d6000803e3d6000fd5b507fca2b4d68e42b50bb8686d4e808d2fb68c569d9b8f497cc8784d7fe315d889e873382604051808373ffffffffffffffffffffffffffffffffffffffff1673ffffffffffffffffffffffffffffffffffffffff1681526020018281526020019250505060405180910390a13073ffffffffffffffffffffffffffffffffffffffff163160085411151515611faf57fe5b5050565b611fc88160085461224490919063ffffffff16565b600881905550600260009054906101000a900473ffffffffffffffffffffffffffffffffffffffff1673ffffffffffffffffffffffffffffffffffffffff166108fc829081150290604051600060405180830381858888f19350505050158015612036573d6000803e3d6000fd5b5050565b80600c541015151561204b57600080fd5b61206081600c5461224490919063ffffffff16565b600c81905550612070828261225d565b5050565b600073ffffffffffffffffffffffffffffffffffffffff168173ffffffffffffffffffffffffffffffffffffffff16141515156120b057600080fd5b8073ffffffffffffffffffffffffffffffffffffffff166000809054906101000a900473ffffffffffffffffffffffffffffffffffffffff1673ffffffffffffffffffffffffffffffffffffffff167f8be0079c531659141344cd1fd0a4f28419497f9722a3daafe3b4186f6b6457e060405160405180910390a3806000806101000a81548173ffffffffffffffffffffffffffffffffffffffff021916908373ffffffffffffffffffffffffffffffffffffffff16021790555050565b600554421015801561218257506006544211155b151561218d57600080fd5b612197828261236c565b5050565b6000808314156121ae57600090506121cd565b81830290508183828115156121bf57fe5b041415156121c957fe5b8090505b92915050565b600260009054906101000a900473ffffffffffffffffffffffffffffffffffffffff1673ffffffffffffffffffffffffffffffffffffffff166108fc349081150290604051600060405180830381858888f1935050505015801561223b573d6000803e3d6000fd5b50565b5050565b565b600082821115151561225257fe5b818303905092915050565b600160009054906101000a900473ffffffffffffffffffffffffffffffffffffffff1673ffffffffffffffffffffffffffffffffffffffff166340c10f1983836040518363ffffffff167c0100000000000000000000000000000000000000000000000000000000028152600401808373ffffffffffffffffffffffffffffffffffffffff1673ffffffffffffffffffffffffffffffffffffffff16815260200182815260200192505050602060405180830381600087803b15801561232257600080fd5b505af1158015612336573d6000803e3d6000fd5b505050506040513d602081101561234c57600080fd5b8101908080519060200190929190505050151561236857600080fd5b5050565b600073ffffffffffffffffffffffffffffffffffffffff168273ffffffffffffffffffffffffffffffffffffffff16141515156123a857600080fd5b600081141515156123b857600080fd5b5050565b604051610f69806123cd833901905600608060405234801561001057600080fd5b50604051604080610f698339810180604052810190808051906020019092919080519060200190929190505050336000806101000a81548173ffffffffffffffffffffffffffffffffffffffff021916908373ffffffffffffffffffffffffffffffffffffffff16021790555081600460006101000a81548173ffffffffffffffffffffffffffffffffffffffff021916908373ffffffffffffffffffffffffffffffffffffffff160217905550806001819055505050610e93806100d66000396000f3006080604052600436106100ae576000357c0100000000000000000000000000000000000000000000000000000000900463ffffffff1680622f9569146100b35780632415aeeb146100de57806327e235e3146101875780632b68b9c6146101de5780633a635989146101f5578063715018a6146102205780638da5cb5b14610237578063ca628c781461028e578063f2fde38b146102a5578063f7503ca2146102e8578063fc0c546a1461034e575b600080fd5b3480156100bf57600080fd5b506100c86103a5565b6040518082815260200191505060405180910390f35b3480156100ea57600080fd5b5061018560048036038101908080359060200190820180359060200190808060200260200160405190810160405280939291908181526020018383602002808284378201915050505050509192919290803590602001908201803590602001908080602002602001604051908101604052809392919081815260200183836020028082843782019150505050505091929192905050506103ab565b005b34801561019357600080fd5b506101c8600480360381019080803573ffffffffffffffffffffffffffffffffffffffff16906020019092919050505061063d565b6040518082815260200191505060405180910390f35b3480156101ea57600080fd5b506101f3610655565b005b34801561020157600080fd5b5061020a610939565b6040518082815260200191505060405180910390f35b34801561022c57600080fd5b5061023561093f565b005b34801561024357600080fd5b5061024c610a41565b604051808273ffffffffffffffffffffffffffffffffffffffff1673ffffffffffffffffffffffffffffffffffffffff16815260200191505060405180910390f35b34801561029a57600080fd5b506102a3610a66565b005b3480156102b157600080fd5b506102e6600480360381019080803573ffffffffffffffffffffffffffffffffffffffff169060200190929190505050610a71565b005b3480156102f457600080fd5b5061034c60048036038101908080359060200190820180359060200190808060200260200160405190810160405280939291908181526020018383602002808284378201915050505050509192919290505050610ad8565b005b34801561035a57600080fd5b50610363610b72565b604051808273ffffffffffffffffffffffffffffffffffffffff1673ffffffffffffffffffffffffffffffffffffffff16815260200191505060405180910390f35b60025481565b60008060009054906101000a900473ffffffffffffffffffffffffffffffffffffffff1673ffffffffffffffffffffffffffffffffffffffff163373ffffffffffffffffffffffffffffffffffffffff1614151561040857600080fd5b8151835114151561041857600080fd5b600090505b82518110156105305760036000848381518110151561043857fe5b9060200190602002015173ffffffffffffffffffffffffffffffffffffffff1673ffffffffffffffffffffffffffffffffffffffff16815260200190815260200160002054600260008282540392505081905550818181518110151561049a57fe5b906020019060200201516003600085848151811015156104b657fe5b9060200190602002015173ffffffffffffffffffffffffffffffffffffffff1673ffffffffffffffffffffffffffffffffffffffff16815260200190815260200160002081905550818181518110151561050c57fe5b9060200190602002015160026000828254019250508190555080600101905061041d565b600460009054906101000a900473ffffffffffffffffffffffffffffffffffffffff1673ffffffffffffffffffffffffffffffffffffffff166370a08231306040518263ffffffff167c0100000000000000000000000000000000000000000000000000000000028152600401808273ffffffffffffffffffffffffffffffffffffffff1673ffffffffffffffffffffffffffffffffffffffff168152602001915050602060405180830381600087803b1580156105ed57600080fd5b505af1158015610601573d6000803e3d6000fd5b505050506040513d602081101561061757600080fd5b81019080805190602001909291905050506002541115151561063857600080fd5b505050565b60036020528060005260406000206000915090505481565b60008060009054906101000a900473ffffffffffffffffffffffffffffffffffffffff1673ffffffffffffffffffffffffffffffffffffffff163373ffffffffffffffffffffffffffffffffffffffff161415156106b257600080fd5b6106cb6301e13380600154610b9890919063ffffffff16565b42101515156106d957600080fd5b600460009054906101000a900473ffffffffffffffffffffffffffffffffffffffff1673ffffffffffffffffffffffffffffffffffffffff166370a08231306040518263ffffffff167c0100000000000000000000000000000000000000000000000000000000028152600401808273ffffffffffffffffffffffffffffffffffffffff1673ffffffffffffffffffffffffffffffffffffffff168152602001915050602060405180830381600087803b15801561079657600080fd5b505af11580156107aa573d6000803e3d6000fd5b505050506040513d60208110156107c057600080fd5b8101908080519060200190929190505050905060008111156108ff57600460009054906101000a900473ffffffffffffffffffffffffffffffffffffffff1673ffffffffffffffffffffffffffffffffffffffff1663a9059cbb6000809054906101000a900473ffffffffffffffffffffffffffffffffffffffff16836040518363ffffffff167c0100000000000000000000000000000000000000000000000000000000028152600401808373ffffffffffffffffffffffffffffffffffffffff1673ffffffffffffffffffffffffffffffffffffffff16815260200182815260200192505050602060405180830381600087803b1580156108c257600080fd5b505af11580156108d6573d6000803e3d6000fd5b505050506040513d60208110156108ec57600080fd5b8101908080519060200190929190505050505b6000809054906101000a900473ffffffffffffffffffffffffffffffffffffffff1673ffffffffffffffffffffffffffffffffffffffff16ff5b60015481565b6000809054906101000a900473ffffffffffffffffffffffffffffffffffffffff1673ffffffffffffffffffffffffffffffffffffffff163373ffffffffffffffffffffffffffffffffffffffff1614151561099a57600080fd5b6000809054906101000a900473ffffffffffffffffffffffffffffffffffffffff1673ffffffffffffffffffffffffffffffffffffffff167ff8df31144d9c2f0f6b59d69b8b98abd5459d07f2742c4df920b25aae33c6482060405160405180910390a260008060006101000a81548173ffffffffffffffffffffffffffffffffffffffff021916908373ffffffffffffffffffffffffffffffffffffffff160217905550565b6000809054906101000a900473ffffffffffffffffffffffffffffffffffffffff1681565b610a6f33610bb4565b565b6000809054906101000a900473ffffffffffffffffffffffffffffffffffffffff1673ffffffffffffffffffffffffffffffffffffffff163373ffffffffffffffffffffffffffffffffffffffff16141515610acc57600080fd5b610ad581610d6d565b50565b60008060009054906101000a900473ffffffffffffffffffffffffffffffffffffffff1673ffffffffffffffffffffffffffffffffffffffff163373ffffffffffffffffffffffffffffffffffffffff16141515610b3557600080fd5b600090505b8151811015610b6e57610b638282815181101515610b5457fe5b90602001906020020151610bb4565b806001019050610b3a565b5050565b600460009054906101000a900473ffffffffffffffffffffffffffffffffffffffff1681565b60008183019050828110151515610bab57fe5b80905092915050565b60006001544210151515610bc757600080fd5b600360008373ffffffffffffffffffffffffffffffffffffffff1673ffffffffffffffffffffffffffffffffffffffff1681526020019081526020016000205490506000600360008473ffffffffffffffffffffffffffffffffffffffff1673ffffffffffffffffffffffffffffffffffffffff1681526020019081526020016000208190555080600260008282540392505081905550600460009054906101000a900473ffffffffffffffffffffffffffffffffffffffff1673ffffffffffffffffffffffffffffffffffffffff1663a9059cbb83836040518363ffffffff167c0100000000000000000000000000000000000000000000000000000000028152600401808373ffffffffffffffffffffffffffffffffffffffff1673ffffffffffffffffffffffffffffffffffffffff16815260200182815260200192505050602060405180830381600087803b158015610d2357600080fd5b505af1158015610d37573d6000803e3d6000fd5b505050506040513d6020811015610d4d57600080fd5b81019080805190602001909291905050501515610d6957600080fd5b5050565b600073ffffffffffffffffffffffffffffffffffffffff168173ffffffffffffffffffffffffffffffffffffffff1614151515610da957600080fd5b8073ffffffffffffffffffffffffffffffffffffffff166000809054906101000a900473ffffffffffffffffffffffffffffffffffffffff1673ffffffffffffffffffffffffffffffffffffffff167f8be0079c531659141344cd1fd0a4f28419497f9722a3daafe3b4186f6b6457e060405160405180910390a3806000806101000a81548173ffffffffffffffffffffffffffffffffffffffff021916908373ffffffffffffffffffffffffffffffffffffffff160217905550505600a165627a7a7230582034679a247a597953e5ab279dfb7a65262933c66dfb19db1365541168f6332b590029a165627a7a72305820c95764553fa205d3f68ea276011fc16f1a008a0783b7bd6a11246da7eaad23a60029",
  "source": "pragma solidity 0.4.24;\n\nimport \"../node_modules/openzeppelin-solidity/contracts/token/ERC20/ERC20.sol\";\nimport \"../node_modules/openzeppelin-solidity/contracts/crowdsale/distribution/FinalizableCrowdsale.sol\";\nimport \"../node_modules/openzeppelin-solidity/contracts/crowdsale/emission/MintedCrowdsale.sol\";\nimport \"./PostKYCCrowdsale.sol\";\nimport \"./TokenVesting.sol\";\nimport \"./GoForItToken.sol\";\n\n\n/// @title GoForItTokenSale\n/// @author Sicos et al.\ncontract GoForItTokenSale is PostKYCCrowdsale, MintedCrowdsale {\n\n    // Maxmimum number of tokens sold\n    uint public constant TOTAL_TOKEN_CAP_OF_SALE = 1250000000e18;  // = 1.250.000.000 e18\n\n    // Extra tokens minted upon finalization\n    uint public constant TOKEN_SHARE_OF_PRESALE  =  5511842425e18;  // =  5.511.842.425 e18\n    uint public constant TOKEN_SHARE_OF_TEAM     =  1100000000e18;  // =  1.100.000.000 e18\n    uint public constant TOKEN_SHARE_OF_ADVISORS =  1087500000e18;  // =  1.087.500.000 e18\n    uint public constant TOKEN_SHARE_OF_COMPANY  =  3369407575e18;  // =  3.369.407.575 e18\n    uint public constant TOKEN_SHARE_OF_BOUNTY   =   181250000e18;  // =    181.250.000 e18\n\n    // Date/time constants\n    uint public constant SALE_OPENING_TIME     = 1000000000;  // 201X-00-00 00:00:00 CEST\n    uint public constant SALE_CLOSING_TIME     = 2000000000;  // 201X-00-00 00:00:00 CEST\n\n    // addresses token shares are minted to in finalization\n    TokenVesting public oneYearVesting;\n    TokenVesting public twoYearVesting;\n\n    // Amount of token available for purchase\n    uint public remainingTokensForSale;\n\n    /// @dev Log entry on rate changed\n    /// @param newRate the new rate\n    event RateChanged(uint newRate);\n\n    /// @dev Constructor\n    /// @param _token A GoForItToken\n    /// @param _rate the initial rate.\n    /// @param _wallet MultiSig wallet address the ETH is forwarded to.\n    constructor(\n        GoForItToken _token,\n        uint _rate,\n        address _wallet\n    )\n        public\n        Crowdsale(_rate, _wallet, _token)\n        TimedCrowdsale(SALE_OPENING_TIME, SALE_CLOSING_TIME)\n    {\n        remainingTokensForSale = TOTAL_TOKEN_CAP_OF_SALE;\n    }\n\n    /// @dev Set rate\n    /// @param _newRate the new rate\n    function setRate(uint _newRate) public onlyOwner {\n        // A rate change by a magnitude order of ten and above is rather a typo than intention.\n        // If it was indeed desired, several setRate transactions have to be sent.\n        require(rate / 10 < _newRate && _newRate < 10 * rate);\n\n        rate = _newRate;\n\n        emit RateChanged(_newRate);\n    }\n\n    /// @dev unverified investors can withdraw their money only after the GoForIt Sale ended\n    function withdrawInvestment() public {\n        require(hasClosed());\n\n        super.withdrawInvestment();\n    }\n\n\n    /// @dev Is the GoForIt main sale ongoing?\n    /// @return bool\n    function GoForItSaleOngoing() public view returns (bool) {\n        return SALE_OPENING_TIME <= now && now <= SALE_CLOSING_TIME;\n    }\n\n    /// @dev Deliver tokens\n    /// @param _beneficiary an investors Ethereum address\n    /// @param _tokenAmount token amount to deliver\n    function _deliverTokens(address _beneficiary, uint _tokenAmount) internal {\n        require(remainingTokensForSale >= _tokenAmount);\n        remainingTokensForSale = remainingTokensForSale.sub(_tokenAmount);\n\n        super._deliverTokens(_beneficiary, _tokenAmount);\n    }\n\n    /// @dev Finalization\n    function finalization() internal {\n        require(hasClosed());\n\n        oneYearVesting = new TokenVesting(GoForItToken(token), now + 365 days);\n        oneYearVesting.transferOwnership(owner);\n        GoForItToken(token).mint(oneYearVesting, TOKEN_SHARE_OF_COMPANY);\n        GoForItToken(token).mint(oneYearVesting, TOKEN_SHARE_OF_PRESALE);\n\n        twoYearVesting = new TokenVesting(GoForItToken(token), now + 730 days);\n        twoYearVesting.transferOwnership(owner);\n        GoForItToken(token).mint(twoYearVesting, TOKEN_SHARE_OF_ADVISORS);\n        GoForItToken(token).mint(twoYearVesting, (TOKEN_SHARE_OF_TEAM *75)/100);\n\n\n        GoForItToken(token).mint(wallet, (TOKEN_SHARE_OF_TEAM  *25)/100);\n        GoForItToken(token).mint(wallet, TOKEN_SHARE_OF_BOUNTY);\n\n        GoForItToken(token).finishMinting();\n        GoForItToken(token).unpause();\n\n        super.finalization();\n    }\n\n}\n",
  "sourcePath": "/home/lukas/sicos/smartcontracts/contracts/GoForItTokenSale.sol",
  "compiler": {
    "name": "solc",
    "version": "0.4.24+commit.e67f0147.Emscripten.clang"
  },
  "schemaVersion": "2.0.1",
  "updatedAt": "2018-12-04T18:11:37.327Z"
}