{
  "contractName": "GoForItTokenSale",
  "abi": [
    {
      "constant": true,
      "inputs": [],
      "name": "advisorsAddress",
      "outputs": [
        {
          "name": "",
          "type": "address"
        }
      ],
      "payable": false,
      "stateMutability": "view",
      "type": "function"
    },
    {
      "constant": true,
      "inputs": [],
      "name": "hasClosed",
      "outputs": [
        {
          "name": "",
          "type": "bool"
        }
      ],
      "payable": false,
      "stateMutability": "view",
      "type": "function"
    },
    {
      "constant": true,
      "inputs": [],
      "name": "teamAddress",
      "outputs": [
        {
          "name": "",
          "type": "address"
        }
      ],
      "payable": false,
      "stateMutability": "view",
      "type": "function"
    },
    {
      "constant": true,
      "inputs": [],
      "name": "pendingWeiAmount",
      "outputs": [
        {
          "name": "",
          "type": "uint256"
        }
      ],
      "payable": false,
      "stateMutability": "view",
      "type": "function"
    },
    {
      "constant": true,
      "inputs": [],
      "name": "rate",
      "outputs": [
        {
          "name": "",
          "type": "uint256"
        }
      ],
      "payable": false,
      "stateMutability": "view",
      "type": "function"
    },
    {
      "constant": true,
      "inputs": [],
      "name": "weiRaised",
      "outputs": [
        {
          "name": "",
          "type": "uint256"
        }
      ],
      "payable": false,
      "stateMutability": "view",
      "type": "function"
    },
    {
      "constant": true,
      "inputs": [],
      "name": "closingTime",
      "outputs": [
        {
          "name": "",
          "type": "uint256"
        }
      ],
      "payable": false,
      "stateMutability": "view",
      "type": "function"
    },
    {
      "constant": false,
      "inputs": [],
      "name": "finalize",
      "outputs": [],
      "payable": false,
      "stateMutability": "nonpayable",
      "type": "function"
    },
    {
      "constant": true,
      "inputs": [],
      "name": "wallet",
      "outputs": [
        {
          "name": "",
          "type": "address"
        }
      ],
      "payable": false,
      "stateMutability": "view",
      "type": "function"
    },
    {
      "constant": true,
      "inputs": [],
      "name": "companyAddress",
      "outputs": [
        {
          "name": "",
          "type": "address"
        }
      ],
      "payable": false,
      "stateMutability": "view",
      "type": "function"
    },
    {
      "constant": true,
      "inputs": [],
      "name": "SALE_CLOSING_TIME",
      "outputs": [
        {
          "name": "",
          "type": "uint256"
        }
      ],
      "payable": false,
      "stateMutability": "view",
      "type": "function"
    },
    {
      "constant": true,
      "inputs": [],
      "name": "TOKEN_SHARE_OF_ADVISORS",
      "outputs": [
        {
          "name": "",
          "type": "uint256"
        }
      ],
      "payable": false,
      "stateMutability": "view",
      "type": "function"
    },
    {
      "constant": false,
      "inputs": [],
      "name": "renounceOwnership",
      "outputs": [],
      "payable": false,
      "stateMutability": "nonpayable",
      "type": "function"
    },
    {
      "constant": true,
      "inputs": [],
      "name": "isFinalized",
      "outputs": [
        {
          "name": "",
          "type": "bool"
        }
      ],
      "payable": false,
      "stateMutability": "view",
      "type": "function"
    },
    {
      "constant": true,
      "inputs": [],
      "name": "owner",
      "outputs": [
        {
          "name": "",
          "type": "address"
        }
      ],
      "payable": false,
      "stateMutability": "view",
      "type": "function"
    },
    {
      "constant": true,
      "inputs": [],
      "name": "TOKEN_SHARE_OF_TEAM",
      "outputs": [
        {
          "name": "",
          "type": "uint256"
        }
      ],
      "payable": false,
      "stateMutability": "view",
      "type": "function"
    },
    {
      "constant": true,
      "inputs": [
        {
          "name": "",
          "type": "address"
        }
      ],
      "name": "investments",
      "outputs": [
        {
          "name": "isVerified",
          "type": "bool"
        },
        {
          "name": "totalWeiInvested",
          "type": "uint256"
        },
        {
          "name": "pendingTokenAmount",
          "type": "uint256"
        }
      ],
      "payable": false,
      "stateMutability": "view",
      "type": "function"
    },
    {
      "constant": true,
      "inputs": [],
      "name": "remainingTokensForSale",
      "outputs": [
        {
          "name": "",
          "type": "uint256"
        }
      ],
      "payable": false,
      "stateMutability": "view",
      "type": "function"
    },
    {
      "constant": true,
      "inputs": [],
      "name": "TOKEN_SHARE_OF_BOUNTY",
      "outputs": [
        {
          "name": "",
          "type": "uint256"
        }
      ],
      "payable": false,
      "stateMutability": "view",
      "type": "function"
    },
    {
      "constant": true,
      "inputs": [],
      "name": "TOKEN_SHARE_OF_COMPANY",
      "outputs": [
        {
          "name": "",
          "type": "uint256"
        }
      ],
      "payable": false,
      "stateMutability": "view",
      "type": "function"
    },
    {
      "constant": true,
      "inputs": [],
      "name": "TOTAL_TOKEN_CAP_OF_SALE",
      "outputs": [
        {
          "name": "",
          "type": "uint256"
        }
      ],
      "payable": false,
      "stateMutability": "view",
      "type": "function"
    },
    {
      "constant": true,
      "inputs": [],
      "name": "openingTime",
      "outputs": [
        {
          "name": "",
          "type": "uint256"
        }
      ],
      "payable": false,
      "stateMutability": "view",
      "type": "function"
    },
    {
      "constant": true,
      "inputs": [],
      "name": "bountyAddress",
      "outputs": [
        {
          "name": "",
          "type": "address"
        }
      ],
      "payable": false,
      "stateMutability": "view",
      "type": "function"
    },
    {
      "constant": false,
      "inputs": [
        {
          "name": "_investors",
          "type": "address[]"
        }
      ],
      "name": "verifyInvestors",
      "outputs": [],
      "payable": false,
      "stateMutability": "nonpayable",
      "type": "function"
    },
    {
      "constant": true,
      "inputs": [],
      "name": "SALE_OPENING_TIME",
      "outputs": [
        {
          "name": "",
          "type": "uint256"
        }
      ],
      "payable": false,
      "stateMutability": "view",
      "type": "function"
    },
    {
      "constant": false,
      "inputs": [
        {
          "name": "_beneficiary",
          "type": "address"
        }
      ],
      "name": "buyTokens",
      "outputs": [],
      "payable": true,
      "stateMutability": "payable",
      "type": "function"
    },
    {
      "constant": false,
      "inputs": [
        {
          "name": "_newOwner",
          "type": "address"
        }
      ],
      "name": "transferOwnership",
      "outputs": [],
      "payable": false,
      "stateMutability": "nonpayable",
      "type": "function"
    },
    {
      "constant": true,
      "inputs": [],
      "name": "token",
      "outputs": [
        {
          "name": "",
          "type": "address"
        }
      ],
      "payable": false,
      "stateMutability": "view",
      "type": "function"
    },
    {
      "inputs": [
        {
          "name": "_token",
          "type": "address"
        },
        {
          "name": "_rate",
          "type": "uint256"
        },
        {
          "name": "_teamAddress",
          "type": "address"
        },
        {
          "name": "_advisorsAddress",
          "type": "address"
        },
        {
          "name": "_companyAddress",
          "type": "address"
        },
        {
          "name": "_bountyAddress",
          "type": "address"
        },
        {
          "name": "_wallet",
          "type": "address"
        }
      ],
      "payable": false,
      "stateMutability": "nonpayable",
      "type": "constructor"
    },
    {
      "payable": true,
      "stateMutability": "payable",
      "type": "fallback"
    },
    {
      "anonymous": false,
      "inputs": [
        {
          "indexed": false,
          "name": "newRate",
          "type": "uint256"
        }
      ],
      "name": "RateChanged",
      "type": "event"
    },
    {
      "anonymous": false,
      "inputs": [
        {
          "indexed": false,
          "name": "investor",
          "type": "address"
        }
      ],
      "name": "InvestorVerified",
      "type": "event"
    },
    {
      "anonymous": false,
      "inputs": [
        {
          "indexed": false,
          "name": "investor",
          "type": "address"
        },
        {
          "indexed": false,
          "name": "amount",
          "type": "uint256"
        }
      ],
      "name": "TokensDelivered",
      "type": "event"
    },
    {
      "anonymous": false,
      "inputs": [
        {
          "indexed": false,
          "name": "investor",
          "type": "address"
        },
        {
          "indexed": false,
          "name": "value",
          "type": "uint256"
        }
      ],
      "name": "InvestmentWithdrawn",
      "type": "event"
    },
    {
      "anonymous": false,
      "inputs": [],
      "name": "Finalized",
      "type": "event"
    },
    {
      "anonymous": false,
      "inputs": [
        {
          "indexed": true,
          "name": "purchaser",
          "type": "address"
        },
        {
          "indexed": true,
          "name": "beneficiary",
          "type": "address"
        },
        {
          "indexed": false,
          "name": "value",
          "type": "uint256"
        },
        {
          "indexed": false,
          "name": "amount",
          "type": "uint256"
        }
      ],
      "name": "TokenPurchase",
      "type": "event"
    },
    {
      "anonymous": false,
      "inputs": [
        {
          "indexed": true,
          "name": "previousOwner",
          "type": "address"
        }
      ],
      "name": "OwnershipRenounced",
      "type": "event"
    },
    {
      "anonymous": false,
      "inputs": [
        {
          "indexed": true,
          "name": "previousOwner",
          "type": "address"
        },
        {
          "indexed": true,
          "name": "newOwner",
          "type": "address"
        }
      ],
      "name": "OwnershipTransferred",
      "type": "event"
    },
    {
      "constant": false,
      "inputs": [
        {
          "name": "_investors",
          "type": "address[]"
        },
        {
          "name": "_amounts",
          "type": "uint256[]"
        }
      ],
      "name": "distributePresale",
      "outputs": [],
      "payable": false,
      "stateMutability": "nonpayable",
      "type": "function"
    },
    {
      "constant": false,
      "inputs": [
        {
          "name": "_newRate",
          "type": "uint256"
        }
      ],
      "name": "setRate",
      "outputs": [],
      "payable": false,
      "stateMutability": "nonpayable",
      "type": "function"
    },
    {
      "constant": false,
      "inputs": [],
      "name": "withdrawInvestment",
      "outputs": [],
      "payable": false,
      "stateMutability": "nonpayable",
      "type": "function"
    },
    {
      "constant": true,
      "inputs": [],
      "name": "GoForItSaleOngoing",
      "outputs": [
        {
          "name": "",
          "type": "bool"
        }
      ],
      "payable": false,
      "stateMutability": "view",
      "type": "function"
    }
  ],
  "bytecode": "0x60806040526000600760006101000a81548160ff02191690831515021790555060006008553480156200003157600080fd5b5060405160e080620026c383398101806040528101908080519060200190929190805190602001909291908051906020019092919080519060200190929190805190602001909291908051906020019092919080519060200190929190505050633b9aca00637735940087838a336000806101000a81548173ffffffffffffffffffffffffffffffffffffffff021916908373ffffffffffffffffffffffffffffffffffffffff160217905550600083111515620000ee57600080fd5b600073ffffffffffffffffffffffffffffffffffffffff168273ffffffffffffffffffffffffffffffffffffffff16141515156200012b57600080fd5b600073ffffffffffffffffffffffffffffffffffffffff168173ffffffffffffffffffffffffffffffffffffffff16141515156200016857600080fd5b8260038190555081600260006101000a81548173ffffffffffffffffffffffffffffffffffffffff021916908373ffffffffffffffffffffffffffffffffffffffff16021790555080600160006101000a81548173ffffffffffffffffffffffffffffffffffffffff021916908373ffffffffffffffffffffffffffffffffffffffff1602179055505050504282101515156200020457600080fd5b8181101515156200021457600080fd5b816005819055508060068190555050506a95ed2e302a973e3d4000006b0ae31bcea3e48655b2fc00006b03838f1520ff8b756f8000006b038de60f7c988d0fcc0000006b0409f9cbc7c4a04c22000000010101018773ffffffffffffffffffffffffffffffffffffffff1663355274ea6040518163ffffffff167c0100000000000000000000000000000000000000000000000000000000028152600401602060405180830381600087803b158015620002cd57600080fd5b505af1158015620002e2573d6000803e3d6000fd5b505050506040513d6020811015620002f957600080fd5b8101908080519060200190929190505050101515156200031857600080fd5b600073ffffffffffffffffffffffffffffffffffffffff168573ffffffffffffffffffffffffffffffffffffffff1614158015620003835750600073ffffffffffffffffffffffffffffffffffffffff168473ffffffffffffffffffffffffffffffffffffffff1614155b8015620003bd5750600073ffffffffffffffffffffffffffffffffffffffff168373ffffffffffffffffffffffffffffffffffffffff1614155b8015620003f75750600073ffffffffffffffffffffffffffffffffffffffff168273ffffffffffffffffffffffffffffffffffffffff1614155b15156200040357600080fd5b84600a60006101000a81548173ffffffffffffffffffffffffffffffffffffffff021916908373ffffffffffffffffffffffffffffffffffffffff16021790555083600b60006101000a81548173ffffffffffffffffffffffffffffffffffffffff021916908373ffffffffffffffffffffffffffffffffffffffff16021790555082600c60006101000a81548173ffffffffffffffffffffffffffffffffffffffff021916908373ffffffffffffffffffffffffffffffffffffffff16021790555081600d60006101000a81548173ffffffffffffffffffffffffffffffffffffffff021916908373ffffffffffffffffffffffffffffffffffffffff1602179055506b0409f9cbc7c4a04c22000000600e819055505050505050505061219280620005316000396000f300608060405260043610610196576000357c0100000000000000000000000000000000000000000000000000000000900463ffffffff1680630dc10a60146101a15780631515bc2b146101f85780631c75f0851461022757806327b44a6c1461027e5780632c4e722e146102a957806334fcf437146102d45780634042b66f146103015780634b6753bc1461032c5780634bb278f314610357578063521eb2731461036e57806353e1ead9146103c55780635959306f1461041c5780636927e45a14610447578063715018a61461047257806388d0e22b146104895780638d4e4083146104b85780638da5cb5b146104e75780639584fbfc1461053e57806396b98862146105695780639b39f9bf146105d25780639c001bcc146105fd5780639f9cb8e114610628578063adad487314610653578063b1a2bbd1146106fc578063b7a8807c14610727578063bf3e394e14610752578063c516358f14610769578063c69b5dfb146107c0578063d457328414610826578063ec8ac4d814610851578063f2fde38b14610887578063fc0c546a146108ca575b61019f33610921565b005b3480156101ad57600080fd5b506101b66109ef565b604051808273ffffffffffffffffffffffffffffffffffffffff1673ffffffffffffffffffffffffffffffffffffffff16815260200191505060405180910390f35b34801561020457600080fd5b5061020d610a15565b604051808215151515815260200191505060405180910390f35b34801561023357600080fd5b5061023c610a21565b604051808273ffffffffffffffffffffffffffffffffffffffff1673ffffffffffffffffffffffffffffffffffffffff16815260200191505060405180910390f35b34801561028a57600080fd5b50610293610a47565b6040518082815260200191505060405180910390f35b3480156102b557600080fd5b506102be610a4d565b6040518082815260200191505060405180910390f35b3480156102e057600080fd5b506102ff60048036038101908080359060200190929190505050610a53565b005b34801561030d57600080fd5b50610316610b1b565b6040518082815260200191505060405180910390f35b34801561033857600080fd5b50610341610b21565b6040518082815260200191505060405180910390f35b34801561036357600080fd5b5061036c610b27565b005b34801561037a57600080fd5b50610383610c02565b604051808273ffffffffffffffffffffffffffffffffffffffff1673ffffffffffffffffffffffffffffffffffffffff16815260200191505060405180910390f35b3480156103d157600080fd5b506103da610c28565b604051808273ffffffffffffffffffffffffffffffffffffffff1673ffffffffffffffffffffffffffffffffffffffff16815260200191505060405180910390f35b34801561042857600080fd5b50610431610c4e565b6040518082815260200191505060405180910390f35b34801561045357600080fd5b5061045c610c56565b6040518082815260200191505060405180910390f35b34801561047e57600080fd5b50610487610c66565b005b34801561049557600080fd5b5061049e610d68565b604051808215151515815260200191505060405180910390f35b3480156104c457600080fd5b506104cd610d87565b604051808215151515815260200191505060405180910390f35b3480156104f357600080fd5b506104fc610d9a565b604051808273ffffffffffffffffffffffffffffffffffffffff1673ffffffffffffffffffffffffffffffffffffffff16815260200191505060405180910390f35b34801561054a57600080fd5b50610553610dbf565b6040518082815260200191505060405180910390f35b34801561057557600080fd5b506105aa600480360381019080803573ffffffffffffffffffffffffffffffffffffffff169060200190929190505050610dcf565b6040518084151515158152602001838152602001828152602001935050505060405180910390f35b3480156105de57600080fd5b506105e7610e06565b6040518082815260200191505060405180910390f35b34801561060957600080fd5b50610612610e0c565b6040518082815260200191505060405180910390f35b34801561063457600080fd5b5061063d610e1b565b6040518082815260200191505060405180910390f35b34801561065f57600080fd5b506106fa6004803603810190808035906020019082018035906020019080806020026020016040519081016040528093929190818152602001838360200280828437820191505050505050919291929080359060200190820180359060200190808060200260200160405190810160405280939291908181526020018383602002808284378201915050505050509192919290505050610e2b565b005b34801561070857600080fd5b50610711611057565b6040518082815260200191505060405180910390f35b34801561073357600080fd5b5061073c611067565b6040518082815260200191505060405180910390f35b34801561075e57600080fd5b5061076761106d565b005b34801561077557600080fd5b5061077e61108a565b604051808273ffffffffffffffffffffffffffffffffffffffff1673ffffffffffffffffffffffffffffffffffffffff16815260200191505060405180910390f35b3480156107cc57600080fd5b50610824600480360381019080803590602001908201803590602001908080602002602001604051908101604052809392919081815260200183836020028082843782019150505050505091929192905050506110b0565b005b34801561083257600080fd5b5061083b6112c2565b6040518082815260200191505060405180910390f35b610885600480360381019080803573ffffffffffffffffffffffffffffffffffffffff169060200190929190505050610921565b005b34801561089357600080fd5b506108c8600480360381019080803573ffffffffffffffffffffffffffffffffffffffff1690602001909291905050506112ca565b005b3480156108d657600080fd5b506108df611331565b604051808273ffffffffffffffffffffffffffffffffffffffff1673ffffffffffffffffffffffffffffffffffffffff16815260200191505060405180910390f35b6000803491506109318383611357565b61093a8261139f565b9050610951826004546113bd90919063ffffffff16565b60048190555061096183826113d9565b8273ffffffffffffffffffffffffffffffffffffffff163373ffffffffffffffffffffffffffffffffffffffff167f623b3804fa71d67900d064613da8f94b9617215ee90799290593e1745087ad188484604051808381526020018281526020019250505060405180910390a36109d8838361150c565b6109e0611510565b6109ea8383611570565b505050565b600b60009054906101000a900473ffffffffffffffffffffffffffffffffffffffff1681565b60006006544211905090565b600a60009054906101000a900473ffffffffffffffffffffffffffffffffffffffff1681565b60085481565b60035481565b6000809054906101000a900473ffffffffffffffffffffffffffffffffffffffff1673ffffffffffffffffffffffffffffffffffffffff163373ffffffffffffffffffffffffffffffffffffffff16141515610aae57600080fd5b80600a600354811515610abd57fe5b04108015610acf5750600354600a0281105b1515610ada57600080fd5b806003819055507f595a30f13a69b616c4d568e2a2b7875fdfe86e4300a049953c76ee278f8f3f10816040518082815260200191505060405180910390a150565b60045481565b60065481565b6000809054906101000a900473ffffffffffffffffffffffffffffffffffffffff1673ffffffffffffffffffffffffffffffffffffffff163373ffffffffffffffffffffffffffffffffffffffff16141515610b8257600080fd5b600760009054906101000a900460ff16151515610b9e57600080fd5b610ba6610a15565b1515610bb157600080fd5b610bb96115a3565b7f6823b073d48d6e3a7d385eeb601452d680e74bb46afe3255a7d778f3a9b1768160405160405180910390a16001600760006101000a81548160ff021916908315150217905550565b600260009054906101000a900473ffffffffffffffffffffffffffffffffffffffff1681565b600c60009054906101000a900473ffffffffffffffffffffffffffffffffffffffff1681565b637735940081565b6b03838f1520ff8b756f80000081565b6000809054906101000a900473ffffffffffffffffffffffffffffffffffffffff1673ffffffffffffffffffffffffffffffffffffffff163373ffffffffffffffffffffffffffffffffffffffff16141515610cc157600080fd5b6000809054906101000a900473ffffffffffffffffffffffffffffffffffffffff1673ffffffffffffffffffffffffffffffffffffffff167ff8df31144d9c2f0f6b59d69b8b98abd5459d07f2742c4df920b25aae33c6482060405160405180910390a260008060006101000a81548173ffffffffffffffffffffffffffffffffffffffff021916908373ffffffffffffffffffffffffffffffffffffffff160217905550565b600042633b9aca0011158015610d82575063773594004211155b905090565b600760009054906101000a900460ff1681565b6000809054906101000a900473ffffffffffffffffffffffffffffffffffffffff1681565b6b038de60f7c988d0fcc00000081565b60096020528060005260406000206000915090508060000160009054906101000a900460ff16908060010154908060020154905083565b600e5481565b6a95ed2e302a973e3d40000081565b6b0ae31bcea3e48655b2fc000081565b6000806000809054906101000a900473ffffffffffffffffffffffffffffffffffffffff1673ffffffffffffffffffffffffffffffffffffffff163373ffffffffffffffffffffffffffffffffffffffff16141515610e8957600080fd5b610e91610a15565b151515610e9d57600080fd5b82518451141515610ead57600080fd5b60009150600090505b835181101561102557600160009054906101000a900473ffffffffffffffffffffffffffffffffffffffff1673ffffffffffffffffffffffffffffffffffffffff166340c10f198583815181101515610f0b57fe5b906020019060200201518584815181101515610f2357fe5b906020019060200201516040518363ffffffff167c0100000000000000000000000000000000000000000000000000000000028152600401808373ffffffffffffffffffffffffffffffffffffffff1673ffffffffffffffffffffffffffffffffffffffff16815260200182815260200192505050602060405180830381600087803b158015610fb257600080fd5b505af1158015610fc6573d6000803e3d6000fd5b505050506040513d6020811015610fdc57600080fd5b8101908080519060200190929190505050506110188382815181101515610fff57fe5b90602001906020020151836113bd90919063ffffffff16565b9150806001019050610eb6565b81600e541015151561103657600080fd5b61104b82600e54611bdb90919063ffffffff16565b600e8190555050505050565b6b0409f9cbc7c4a04c2200000081565b60055481565b611075610a15565b151561108057600080fd5b611088611bf4565b565b600d60009054906101000a900473ffffffffffffffffffffffffffffffffffffffff1681565b6000806000806000809054906101000a900473ffffffffffffffffffffffffffffffffffffffff1673ffffffffffffffffffffffffffffffffffffffff163373ffffffffffffffffffffffffffffffffffffffff1614151561111157600080fd5b600093505b84518410156112bb57848481518110151561112d57fe5b906020019060200201519250600960008473ffffffffffffffffffffffffffffffffffffffff1673ffffffffffffffffffffffffffffffffffffffff16815260200190815260200160002091508160000160009054906101000a900460ff1615156112b05760018260000160006101000a81548160ff0219169083151502179055507f293e993e01bc214772c3f076d0b72798191877356179e95807eba63d2f8d2df283604051808273ffffffffffffffffffffffffffffffffffffffff1673ffffffffffffffffffffffffffffffffffffffff16815260200191505060405180910390a18160020154905060008111156112af57600082600201819055506112398260010154611d76565b6112438382611dfd565b7f8fbcf3d47879dffedfcda6d2f03ed557bea5305b6ef6484d3cc06750f13b8e0e8382604051808373ffffffffffffffffffffffffffffffffffffffff1673ffffffffffffffffffffffffffffffffffffffff1681526020018281526020019250505060405180910390a15b5b836001019350611116565b5050505050565b633b9aca0081565b6000809054906101000a900473ffffffffffffffffffffffffffffffffffffffff1673ffffffffffffffffffffffffffffffffffffffff163373ffffffffffffffffffffffffffffffffffffffff1614151561132557600080fd5b61132e81611e37565b50565b600160009054906101000a900473ffffffffffffffffffffffffffffffffffffffff1681565b3373ffffffffffffffffffffffffffffffffffffffff168273ffffffffffffffffffffffffffffffffffffffff1614151561139157600080fd5b61139b8282611f31565b5050565b60006113b660035483611f5e90919063ffffffff16565b9050919050565b600081830190508281101515156113d057fe5b80905092915050565b6000600960003373ffffffffffffffffffffffffffffffffffffffff1673ffffffffffffffffffffffffffffffffffffffff16815260200190815260200160002090506114333482600101546113bd90919063ffffffff16565b81600101819055508060000160009054906101000a900460ff16156114cc5761145c3383611dfd565b7f8fbcf3d47879dffedfcda6d2f03ed557bea5305b6ef6484d3cc06750f13b8e0e3383604051808373ffffffffffffffffffffffffffffffffffffffff1673ffffffffffffffffffffffffffffffffffffffff1681526020018281526020019250505060405180910390a1611507565b6114e38282600201546113bd90919063ffffffff16565b8160020181905550611500346008546113bd90919063ffffffff16565b6008819055505b505050565b5050565b600960003373ffffffffffffffffffffffffffffffffffffffff1673ffffffffffffffffffffffffffffffffffffffff16815260200190815260200160002060000160009054906101000a900460ff161561156e5761156d611f96565b5b565b61157a3382612001565b3073ffffffffffffffffffffffffffffffffffffffff16316008541115151561159f57fe5b5050565b6115ab610a15565b15156115b657600080fd5b600160009054906101000a900473ffffffffffffffffffffffffffffffffffffffff1673ffffffffffffffffffffffffffffffffffffffff166340c10f19600a60009054906101000a900473ffffffffffffffffffffffffffffffffffffffff166b038de60f7c988d0fcc0000006040518363ffffffff167c0100000000000000000000000000000000000000000000000000000000028152600401808373ffffffffffffffffffffffffffffffffffffffff1673ffffffffffffffffffffffffffffffffffffffff16815260200182815260200192505050602060405180830381600087803b1580156116a957600080fd5b505af11580156116bd573d6000803e3d6000fd5b505050506040513d60208110156116d357600080fd5b810190808051906020019092919050505050600160009054906101000a900473ffffffffffffffffffffffffffffffffffffffff1673ffffffffffffffffffffffffffffffffffffffff166340c10f19600b60009054906101000a900473ffffffffffffffffffffffffffffffffffffffff166b03838f1520ff8b756f8000006040518363ffffffff167c0100000000000000000000000000000000000000000000000000000000028152600401808373ffffffffffffffffffffffffffffffffffffffff1673ffffffffffffffffffffffffffffffffffffffff16815260200182815260200192505050602060405180830381600087803b1580156117d857600080fd5b505af11580156117ec573d6000803e3d6000fd5b505050506040513d602081101561180257600080fd5b810190808051906020019092919050505050600160009054906101000a900473ffffffffffffffffffffffffffffffffffffffff1673ffffffffffffffffffffffffffffffffffffffff166340c10f19600c60009054906101000a900473ffffffffffffffffffffffffffffffffffffffff166b0ae31bcea3e48655b2fc00006040518363ffffffff167c0100000000000000000000000000000000000000000000000000000000028152600401808373ffffffffffffffffffffffffffffffffffffffff1673ffffffffffffffffffffffffffffffffffffffff16815260200182815260200192505050602060405180830381600087803b15801561190757600080fd5b505af115801561191b573d6000803e3d6000fd5b505050506040513d602081101561193157600080fd5b810190808051906020019092919050505050600160009054906101000a900473ffffffffffffffffffffffffffffffffffffffff1673ffffffffffffffffffffffffffffffffffffffff166340c10f19600d60009054906101000a900473ffffffffffffffffffffffffffffffffffffffff166a95ed2e302a973e3d4000006040518363ffffffff167c0100000000000000000000000000000000000000000000000000000000028152600401808373ffffffffffffffffffffffffffffffffffffffff1673ffffffffffffffffffffffffffffffffffffffff16815260200182815260200192505050602060405180830381600087803b158015611a3557600080fd5b505af1158015611a49573d6000803e3d6000fd5b505050506040513d6020811015611a5f57600080fd5b810190808051906020019092919050505050600160009054906101000a900473ffffffffffffffffffffffffffffffffffffffff1673ffffffffffffffffffffffffffffffffffffffff16637d64bcb46040518163ffffffff167c0100000000000000000000000000000000000000000000000000000000028152600401602060405180830381600087803b158015611af757600080fd5b505af1158015611b0b573d6000803e3d6000fd5b505050506040513d6020811015611b2157600080fd5b810190808051906020019092919050505050600160009054906101000a900473ffffffffffffffffffffffffffffffffffffffff1673ffffffffffffffffffffffffffffffffffffffff16633f4ba83a6040518163ffffffff167c0100000000000000000000000000000000000000000000000000000000028152600401600060405180830381600087803b158015611bb957600080fd5b505af1158015611bcd573d6000803e3d6000fd5b50505050611bd9612005565b565b6000828211151515611be957fe5b818303905092915050565b600080600960003373ffffffffffffffffffffffffffffffffffffffff1673ffffffffffffffffffffffffffffffffffffffff16815260200190815260200160002091508160000160009054906101000a900460ff16151515611c5657600080fd5b81600101549050600081111515611c6c57600080fd5b6000826001018190555060008260020181905550611c9581600854611bdb90919063ffffffff16565b6008819055503373ffffffffffffffffffffffffffffffffffffffff166108fc829081150290604051600060405180830381858888f19350505050158015611ce1573d6000803e3d6000fd5b507fca2b4d68e42b50bb8686d4e808d2fb68c569d9b8f497cc8784d7fe315d889e873382604051808373ffffffffffffffffffffffffffffffffffffffff1673ffffffffffffffffffffffffffffffffffffffff1681526020018281526020019250505060405180910390a13073ffffffffffffffffffffffffffffffffffffffff163160085411151515611d7257fe5b5050565b611d8b81600854611bdb90919063ffffffff16565b600881905550600260009054906101000a900473ffffffffffffffffffffffffffffffffffffffff1673ffffffffffffffffffffffffffffffffffffffff166108fc829081150290604051600060405180830381858888f19350505050158015611df9573d6000803e3d6000fd5b5050565b80600e5410151515611e0e57600080fd5b611e2381600e54611bdb90919063ffffffff16565b600e81905550611e338282612007565b5050565b600073ffffffffffffffffffffffffffffffffffffffff168173ffffffffffffffffffffffffffffffffffffffff1614151515611e7357600080fd5b8073ffffffffffffffffffffffffffffffffffffffff166000809054906101000a900473ffffffffffffffffffffffffffffffffffffffff1673ffffffffffffffffffffffffffffffffffffffff167f8be0079c531659141344cd1fd0a4f28419497f9722a3daafe3b4186f6b6457e060405160405180910390a3806000806101000a81548173ffffffffffffffffffffffffffffffffffffffff021916908373ffffffffffffffffffffffffffffffffffffffff16021790555050565b6005544210158015611f4557506006544211155b1515611f5057600080fd5b611f5a8282612116565b5050565b600080831415611f715760009050611f90565b8183029050818382811515611f8257fe5b04141515611f8c57fe5b8090505b92915050565b600260009054906101000a900473ffffffffffffffffffffffffffffffffffffffff1673ffffffffffffffffffffffffffffffffffffffff166108fc349081150290604051600060405180830381858888f19350505050158015611ffe573d6000803e3d6000fd5b50565b5050565b565b600160009054906101000a900473ffffffffffffffffffffffffffffffffffffffff1673ffffffffffffffffffffffffffffffffffffffff166340c10f1983836040518363ffffffff167c0100000000000000000000000000000000000000000000000000000000028152600401808373ffffffffffffffffffffffffffffffffffffffff1673ffffffffffffffffffffffffffffffffffffffff16815260200182815260200192505050602060405180830381600087803b1580156120cc57600080fd5b505af11580156120e0573d6000803e3d6000fd5b505050506040513d60208110156120f657600080fd5b8101908080519060200190929190505050151561211257600080fd5b5050565b600073ffffffffffffffffffffffffffffffffffffffff168273ffffffffffffffffffffffffffffffffffffffff161415151561215257600080fd5b6000811415151561216257600080fd5b50505600a165627a7a72305820438581729c0a7df5a13c5776d74013b5b5a1efef944226c47354934b622451c40029",
  "source": "pragma solidity 0.4.24;\n\nimport \"../node_modules/openzeppelin-solidity/contracts/token/ERC20/ERC20.sol\";\nimport \"../node_modules/openzeppelin-solidity/contracts/crowdsale/distribution/FinalizableCrowdsale.sol\";\nimport \"../node_modules/openzeppelin-solidity/contracts/crowdsale/emission/MintedCrowdsale.sol\";\nimport \"./PostKYCCrowdsale.sol\";\nimport \"./GoForItToken.sol\";\n\n\n/// @title GoForItTokenSale\n/// @author Sicos et al.\ncontract GoForItTokenSale is PostKYCCrowdsale, MintedCrowdsale {\n\n    // Maxmimum number of tokens sold\n    uint public constant TOTAL_TOKEN_CAP_OF_SALE = 1250000000e18;  // = 1.250.000.000 e18\n\n    // Extra tokens minted upon finalization\n    uint public constant TOKEN_SHARE_OF_TEAM     =  1100000000e18;  // =  1.100.000.000 e18\n    uint public constant TOKEN_SHARE_OF_ADVISORS =  1087500000e18;  // =  1.087.500.000 e18\n    uint public constant TOKEN_SHARE_OF_COMPANY   =  3369407575e18;  // =  3.369.407.575 e18\n    uint public constant TOKEN_SHARE_OF_BOUNTY   =   181250000e18;  // =    181.250.000 e18\n\n    // Date/time constants\n    uint public constant SALE_OPENING_TIME     = 1000000000;  // 201X-00-00 00:00:00 CEST\n    uint public constant SALE_CLOSING_TIME     = 2000000000;  // 201X-00-00 00:00:00 CEST\n\n    // addresses token shares are minted to in finalization\n    address public teamAddress;\n    address public advisorsAddress;\n    address public companyAddress;\n    address public bountyAddress;\n\n    // Amount of token available for purchase\n    uint public remainingTokensForSale;\n\n    /// @dev Log entry on rate changed\n    /// @param newRate the new rate\n    event RateChanged(uint newRate);\n\n    /// @dev Constructor\n    /// @param _token A GoForItToken\n    /// @param _rate the initial rate.\n    /// @param _teamAddress Ethereum address of Team\n    /// @param _advisorsAddress Ethereum address of Advisors\n    /// @param _companyAddress Ethereum address of company\n    /// @param _bountyAddress A GoForItTokenBounty\n    /// @param _wallet MultiSig wallet address the ETH is forwarded to.\n    constructor(\n        GoForItToken _token,\n        uint _rate,\n        address _teamAddress,\n        address _advisorsAddress,\n        address _companyAddress,\n        address _bountyAddress,\n        address _wallet\n    )\n        public\n        Crowdsale(_rate, _wallet, _token)\n        TimedCrowdsale(SALE_OPENING_TIME, SALE_CLOSING_TIME)\n    {\n        // Token sanity check\n        require(_token.cap() >= TOTAL_TOKEN_CAP_OF_SALE\n                                + TOKEN_SHARE_OF_TEAM\n                                + TOKEN_SHARE_OF_ADVISORS\n                                + TOKEN_SHARE_OF_COMPANY\n                                + TOKEN_SHARE_OF_BOUNTY);\n\n        // Sanity check of addresses\n        require(_teamAddress != address(0)\n                && _advisorsAddress != address(0)\n                && _companyAddress != address(0)\n                && _bountyAddress != address(0));\n\n\n        teamAddress = _teamAddress;\n        advisorsAddress = _advisorsAddress;\n        companyAddress = _companyAddress;\n        bountyAddress = _bountyAddress;\n\n        remainingTokensForSale = TOTAL_TOKEN_CAP_OF_SALE;\n    }\n\n    /// @dev Distribute presale\n    /// @param _investors  list of investor addresses\n    /// @param _amounts  list of token amounts purchased by investors\n    function distributePresale(address[] _investors, uint[] _amounts) public onlyOwner {\n        require(!hasClosed());\n        require(_investors.length == _amounts.length);\n\n        uint totalAmount = 0;\n\n        for (uint i = 0; i < _investors.length; ++i) {\n            GoForItToken(token).mint(_investors[i], _amounts[i]);\n            totalAmount = totalAmount.add(_amounts[i]);\n        }\n\n        require(remainingTokensForSale >= totalAmount);\n        remainingTokensForSale = remainingTokensForSale.sub(totalAmount);\n    }\n\n    /// @dev Set rate\n    /// @param _newRate the new rate\n    function setRate(uint _newRate) public onlyOwner {\n        // A rate change by a magnitude order of ten and above is rather a typo than intention.\n        // If it was indeed desired, several setRate transactions have to be sent.\n        require(rate / 10 < _newRate && _newRate < 10 * rate);\n\n        rate = _newRate;\n\n        emit RateChanged(_newRate);\n    }\n\n    /// @dev unverified investors can withdraw their money only after the GoForIt Sale ended\n    function withdrawInvestment() public {\n        require(hasClosed());\n\n        super.withdrawInvestment();\n    }\n\n\n    /// @dev Is the GoForIt main sale ongoing?\n    /// @return bool\n    function GoForItSaleOngoing() public view returns (bool) {\n        return SALE_OPENING_TIME <= now && now <= SALE_CLOSING_TIME;\n    }\n\n    /// @dev Deliver tokens\n    /// @param _beneficiary an investors Ethereum address\n    /// @param _tokenAmount token amount to deliver\n    function _deliverTokens(address _beneficiary, uint _tokenAmount) internal {\n        require(remainingTokensForSale >= _tokenAmount);\n        remainingTokensForSale = remainingTokensForSale.sub(_tokenAmount);\n\n        super._deliverTokens(_beneficiary, _tokenAmount);\n    }\n\n    /// @dev Finalization\n    function finalization() internal {\n        require(hasClosed());\n\n        GoForItToken(token).mint(teamAddress, TOKEN_SHARE_OF_TEAM);\n        GoForItToken(token).mint(advisorsAddress, TOKEN_SHARE_OF_ADVISORS);\n        GoForItToken(token).mint(companyAddress, TOKEN_SHARE_OF_COMPANY);\n        GoForItToken(token).mint(bountyAddress, TOKEN_SHARE_OF_BOUNTY);\n\n        GoForItToken(token).finishMinting();\n        GoForItToken(token).unpause();\n\n        super.finalization();\n    }\n\n}\n",
  "sourcePath": "/home/lukas/sicos/smartcontracts/contracts/GoForItTokenSale.sol",
  "compiler": {
    "name": "solc",
    "version": "0.4.24+commit.e67f0147.Emscripten.clang"
  },
  "schemaVersion": "2.0.1",
  "updatedAt": "2018-11-20T13:14:52.947Z"
}