{
  "contractName": "PresaleVesting",
  "abi": [
    {
      "constant": true,
      "inputs": [],
      "name": "endOfVestingPeriod",
      "outputs": [
        {
          "name": "",
          "type": "uint256"
        }
      ],
      "payable": false,
      "stateMutability": "view",
      "type": "function"
    },
    {
      "constant": false,
      "inputs": [],
      "name": "renounceOwnership",
      "outputs": [],
      "payable": false,
      "stateMutability": "nonpayable",
      "type": "function"
    },
    {
      "constant": true,
      "inputs": [],
      "name": "owner",
      "outputs": [
        {
          "name": "",
          "type": "address"
        }
      ],
      "payable": false,
      "stateMutability": "view",
      "type": "function"
    },
    {
      "constant": true,
      "inputs": [
        {
          "name": "",
          "type": "address"
        }
      ],
      "name": "presaleBalances",
      "outputs": [
        {
          "name": "",
          "type": "uint256"
        }
      ],
      "payable": false,
      "stateMutability": "view",
      "type": "function"
    },
    {
      "constant": false,
      "inputs": [
        {
          "name": "_newOwner",
          "type": "address"
        }
      ],
      "name": "transferOwnership",
      "outputs": [],
      "payable": false,
      "stateMutability": "nonpayable",
      "type": "function"
    },
    {
      "constant": true,
      "inputs": [],
      "name": "token",
      "outputs": [
        {
          "name": "",
          "type": "address"
        }
      ],
      "payable": false,
      "stateMutability": "view",
      "type": "function"
    },
    {
      "inputs": [
        {
          "name": "_token",
          "type": "address"
        },
        {
          "name": "_endOfVestingPeriod",
          "type": "uint256"
        }
      ],
      "payable": false,
      "stateMutability": "nonpayable",
      "type": "constructor"
    },
    {
      "anonymous": false,
      "inputs": [
        {
          "indexed": true,
          "name": "previousOwner",
          "type": "address"
        }
      ],
      "name": "OwnershipRenounced",
      "type": "event"
    },
    {
      "anonymous": false,
      "inputs": [
        {
          "indexed": true,
          "name": "previousOwner",
          "type": "address"
        },
        {
          "indexed": true,
          "name": "newOwner",
          "type": "address"
        }
      ],
      "name": "OwnershipTransferred",
      "type": "event"
    },
    {
      "constant": false,
      "inputs": [
        {
          "name": "_investors",
          "type": "address[]"
        },
        {
          "name": "_balances",
          "type": "uint256[]"
        }
      ],
      "name": "addPresaleBalance",
      "outputs": [],
      "payable": false,
      "stateMutability": "nonpayable",
      "type": "function"
    },
    {
      "constant": false,
      "inputs": [],
      "name": "withdrawToken",
      "outputs": [],
      "payable": false,
      "stateMutability": "nonpayable",
      "type": "function"
    },
    {
      "constant": false,
      "inputs": [],
      "name": "destruct",
      "outputs": [],
      "payable": false,
      "stateMutability": "nonpayable",
      "type": "function"
    }
  ],
  "bytecode": "0x608060405234801561001057600080fd5b50604051604080610c728339810180604052810190808051906020019092919080519060200190929190505050336000806101000a81548173ffffffffffffffffffffffffffffffffffffffff021916908373ffffffffffffffffffffffffffffffffffffffff16021790555081600360006101000a81548173ffffffffffffffffffffffffffffffffffffffff021916908373ffffffffffffffffffffffffffffffffffffffff160217905550806001819055505050610b9c806100d66000396000f300608060405260043610610099576000357c0100000000000000000000000000000000000000000000000000000000900463ffffffff168063209cceb61461009e5780632b68b9c6146101475780633a6359891461015e578063715018a6146101895780638da5cb5b146101a05780639c24fc55146101f7578063ca628c781461024e578063f2fde38b14610265578063fc0c546a146102a8575b600080fd5b3480156100aa57600080fd5b5061014560048036038101908080359060200190820180359060200190808060200260200160405190810160405280939291908181526020018383602002808284378201915050505050509192919290803590602001908201803590602001908080602002602001604051908101604052809392919081815260200183836020028082843782019150505050505091929192905050506102ff565b005b34801561015357600080fd5b5061015c6103fc565b005b34801561016a57600080fd5b506101736106e0565b6040518082815260200191505060405180910390f35b34801561019557600080fd5b5061019e6106e6565b005b3480156101ac57600080fd5b506101b56107e8565b604051808273ffffffffffffffffffffffffffffffffffffffff1673ffffffffffffffffffffffffffffffffffffffff16815260200191505060405180910390f35b34801561020357600080fd5b50610238600480360381019080803573ffffffffffffffffffffffffffffffffffffffff16906020019092919050505061080d565b6040518082815260200191505060405180910390f35b34801561025a57600080fd5b50610263610825565b005b34801561027157600080fd5b506102a6600480360381019080803573ffffffffffffffffffffffffffffffffffffffff1690602001909291905050506109cd565b005b3480156102b457600080fd5b506102bd610a34565b604051808273ffffffffffffffffffffffffffffffffffffffff1673ffffffffffffffffffffffffffffffffffffffff16815260200191505060405180910390f35b60008060009054906101000a900473ffffffffffffffffffffffffffffffffffffffff1673ffffffffffffffffffffffffffffffffffffffff163373ffffffffffffffffffffffffffffffffffffffff1614151561035c57600080fd5b8151835114151561036c57600080fd5b600090505b82518110156103f757818181518110151561038857fe5b906020019060200201516002600085848151811015156103a457fe5b9060200190602002015173ffffffffffffffffffffffffffffffffffffffff1673ffffffffffffffffffffffffffffffffffffffff16815260200190815260200160002081905550806001019050610371565b505050565b60008060009054906101000a900473ffffffffffffffffffffffffffffffffffffffff1673ffffffffffffffffffffffffffffffffffffffff163373ffffffffffffffffffffffffffffffffffffffff1614151561045957600080fd5b6104726301e13380600154610a5a90919063ffffffff16565b421015151561048057600080fd5b600360009054906101000a900473ffffffffffffffffffffffffffffffffffffffff1673ffffffffffffffffffffffffffffffffffffffff166370a08231306040518263ffffffff167c0100000000000000000000000000000000000000000000000000000000028152600401808273ffffffffffffffffffffffffffffffffffffffff1673ffffffffffffffffffffffffffffffffffffffff168152602001915050602060405180830381600087803b15801561053d57600080fd5b505af1158015610551573d6000803e3d6000fd5b505050506040513d602081101561056757600080fd5b8101908080519060200190929190505050905060008111156106a657600360009054906101000a900473ffffffffffffffffffffffffffffffffffffffff1673ffffffffffffffffffffffffffffffffffffffff1663a9059cbb6000809054906101000a900473ffffffffffffffffffffffffffffffffffffffff16836040518363ffffffff167c0100000000000000000000000000000000000000000000000000000000028152600401808373ffffffffffffffffffffffffffffffffffffffff1673ffffffffffffffffffffffffffffffffffffffff16815260200182815260200192505050602060405180830381600087803b15801561066957600080fd5b505af115801561067d573d6000803e3d6000fd5b505050506040513d602081101561069357600080fd5b8101908080519060200190929190505050505b6000809054906101000a900473ffffffffffffffffffffffffffffffffffffffff1673ffffffffffffffffffffffffffffffffffffffff16ff5b60015481565b6000809054906101000a900473ffffffffffffffffffffffffffffffffffffffff1673ffffffffffffffffffffffffffffffffffffffff163373ffffffffffffffffffffffffffffffffffffffff1614151561074157600080fd5b6000809054906101000a900473ffffffffffffffffffffffffffffffffffffffff1673ffffffffffffffffffffffffffffffffffffffff167ff8df31144d9c2f0f6b59d69b8b98abd5459d07f2742c4df920b25aae33c6482060405160405180910390a260008060006101000a81548173ffffffffffffffffffffffffffffffffffffffff021916908373ffffffffffffffffffffffffffffffffffffffff160217905550565b6000809054906101000a900473ffffffffffffffffffffffffffffffffffffffff1681565b60026020528060005260406000206000915090505481565b6000600154421015151561083857600080fd5b600260003373ffffffffffffffffffffffffffffffffffffffff1673ffffffffffffffffffffffffffffffffffffffff1681526020019081526020016000205490506000600260003373ffffffffffffffffffffffffffffffffffffffff1673ffffffffffffffffffffffffffffffffffffffff16815260200190815260200160002081905550600360009054906101000a900473ffffffffffffffffffffffffffffffffffffffff1673ffffffffffffffffffffffffffffffffffffffff1663a9059cbb33836040518363ffffffff167c0100000000000000000000000000000000000000000000000000000000028152600401808373ffffffffffffffffffffffffffffffffffffffff1673ffffffffffffffffffffffffffffffffffffffff16815260200182815260200192505050602060405180830381600087803b15801561098457600080fd5b505af1158015610998573d6000803e3d6000fd5b505050506040513d60208110156109ae57600080fd5b810190808051906020019092919050505015156109ca57600080fd5b50565b6000809054906101000a900473ffffffffffffffffffffffffffffffffffffffff1673ffffffffffffffffffffffffffffffffffffffff163373ffffffffffffffffffffffffffffffffffffffff16141515610a2857600080fd5b610a3181610a76565b50565b600360009054906101000a900473ffffffffffffffffffffffffffffffffffffffff1681565b60008183019050828110151515610a6d57fe5b80905092915050565b600073ffffffffffffffffffffffffffffffffffffffff168173ffffffffffffffffffffffffffffffffffffffff1614151515610ab257600080fd5b8073ffffffffffffffffffffffffffffffffffffffff166000809054906101000a900473ffffffffffffffffffffffffffffffffffffffff1673ffffffffffffffffffffffffffffffffffffffff167f8be0079c531659141344cd1fd0a4f28419497f9722a3daafe3b4186f6b6457e060405160405180910390a3806000806101000a81548173ffffffffffffffffffffffffffffffffffffffff021916908373ffffffffffffffffffffffffffffffffffffffff160217905550505600a165627a7a723058209abf25d225f7bce6cb55f4927482a6c6e347288f8025d93731fdf2f11fb318ce0029",
  "source": "pragma solidity 0.4.24;\n\nimport './GoForItToken.sol';\n\n/**\n * @title Presale Token vesting contract\n * @author Sicos et al.\n */\n\ncontract PresaleVesting is Ownable {\n    using SafeMath for uint;\n\n    uint256 public endOfVestingPeriod;\n\n    mapping (address => uint256) public presaleBalances;\n\n    GoForItToken public token;\n\n    /**\n     * @dev constructor\n     * @param _token Token contract address for GoForIt token\n     */\n    constructor(address _token, uint _endOfVestingPeriod) public {\n        token = GoForItToken(_token);\n        endOfVestingPeriod = _endOfVestingPeriod;\n    }\n\n    /**\n     * @dev Adds balances for presale investors\n     * @param _investors Address of a founder\n     * @param _balances Number of tokens allocated to a founder\n\n     */\n     function addPresaleBalance(address[] _investors, uint[] _balances) public onlyOwner {\n         require(_investors.length== _balances.length);\n         for (uint i = 0; i < _investors.length; ++i) {\n             presaleBalances[_investors[i]] = _balances[i];\n\n         }\n     }\n\n    /**\n     * @dev Allow company to unlock allocated tokens by transferring them whitelisted addresses.\n     * Need to be called by each address\n     */\n    function withdrawToken() external {\n        require(now >= endOfVestingPeriod);\n\n        uint tokensToTransfer = presaleBalances[msg.sender];\n        presaleBalances[msg.sender] = 0;\n\n        require(token.transfer(msg.sender, tokensToTransfer));\n    }\n\n    /**\n     * @dev allow for selfdestruct possibility and sending funds to owner if presale investors didn't\n     */\n    function destruct() public onlyOwner {\n        require(now >= endOfVestingPeriod.add(365 days));\n        uint256 balance = token.balanceOf(this);\n\n        if (balance > 0) {\n            token.transfer(owner, balance);\n        }\n\n        selfdestruct(owner);\n    }\n}\n",
  "sourcePath": "/home/lukas/sicos/smartcontracts/contracts/PreSaleVesting.sol",
  "compiler": {
    "name": "solc",
    "version": "0.4.24+commit.e67f0147.Emscripten.clang"
  },
  "schemaVersion": "2.0.1",
  "updatedAt": "2018-12-04T17:07:34.563Z"
}